:0200000270008C
:1080000000000120B5820700DD820700DF82070043
:10801000E1820700E3820700E5820700000000001C
:1080200000000000000000000000000035B4070060
:10803000E982070000000000EB820700ED820700E4
:10804000EF820700EF820700EF820700EF82070050
:10805000EF820700EF820700EF820700EF82070040
:10806000EF820700EF820700EF820700EF82070030
:10807000EF820700EF820700EF820700EF82070020
:10808000B1B40700EF820700EF820700EF8207001C
:10809000EF820700EF82070001B40700EF820700BC
:1080A000EF820700EF820700EF820700EF820700F0
:1080B000EF820700EF8207000000000000000000D0
:1080C000EF820700EF820700EF820700EF820700D0
:1080D000C9B40700EF820700EF820700000000002C
:1080E0000000000000000000000000000000000090
:1080F0000000000000000000000000000000000080
:10810000000000000000000000000000000000006F
:10811000000000000000000000000000000000005F
:10812000000000000000000000000000000000004F
:10813000000000000000000000000000000000003F
:10814000000000000000000000000000000000002F
:10815000000000000000000000000000000000001F
:10816000000000000000000000000000000000000F
:1081700000000000000000000000000000000000FF
:1081800000000000000000000000000000000000EF
:1081900000000000000000000000000000000000DF
:1081A00000000000000000000000000000000000CF
:1081B00000000000000000000000000000000000BF
:1081C00000000000000000000000000000000000AF
:1081D000000000000000000000000000000000009F
:1081E000000000000000000000000000000000008F
:1081F000000000000000000000000000000000007F
:1082000010B5054C237833B9044B13B10448AFF3D0
:1082100000800123237010BD605800200000000082
:108220003CD1070008B5034B1BB103490348AFF32A
:10823000008008BD00000000645800203CD1070009
:10824000154B002B08BF134B9D46A3F5803A002128
:108250008B460F461348144A121A04F03FFD0F4B89
:10826000002B00D098470E4B002B00D098470020E1
:10827000002104000D000D48002802D00C48AFF387
:10828000008004F0EDFC2000290003F0B5FA04F0B2
:10829000D3FC00BF00000800000001200000000027
:1082A0000000000060580020A077002000000000BF
:1082B000000000000649074A074B9B1A03DD043BF8
:1082C000C858D050FBDC03F061F9FFF7B9FF00009C
:1082D000A0D10700B857002060580020FEE7FEE755
:1082E000FEE7FEE7FEE7FEE7FEE7FEE7FEE7FEE766
:1082F00070B5EFF3108672B60D4A94680123A4B9E5
:1083000093600C4B0C4DD3F8801029401160C3F8DA
:108310008050D3F8841051604FF0FF32C3F88420AE
:10832000047006B962B6002070BD0370F9E700BFA3
:108330008058002000E100E0FC06FFBD13B5114BA2
:1083400053E8012F94B2D9890C4499898C4228BFF3
:10835000641A19898C4202BFBFF32F8F002307E0F4
:10836000C4EA020443E801410029E9D14FF00103C6
:108370008DF803300192019B03609DF8030002B069
:1083800010BD00BF8C580020044B53E8011FC1EA08
:10839000014143E80112002AF7D170478C580020B0
:1083A000044B53E8021FC1EA214143E80212002AAC
:1083B000F7D170478C58002010B5064B002253E8C7
:1083C000001F01EA020043E8000494F0000FF6D118
:1083D00010BD00BF9C5800202DE9F0471B4C804683
:1083E0001E4604F120001A4B63628946174600F0CE
:1083F00011FAB0B9174D2562B8F1000F1FD0B9F1CD
:10840000000F05D1236AAB420DD048F2025008E0BC
:10841000636A4A465B68414604F120009847002899
:10842000F0D0BDE8F087626A3168D368994209D319
:108430009368094832463946BDE8F047184748F284
:108440001050EEE748F21450EBE700BF80580020D0
:1084500020CD07006E524648A05800204BDF7047E1
:1084600061DF704769DF704760DF704711DF704779
:1084700010DF704769B10B78022B0CD1022804D0B1
:1084800003280CBF11200820704703230B70002025
:1084900070470E2070470820704738B1044B0360C6
:1084A000044B436001230372002070470E20704785
:1084B000A59407007584070043681A44426011B10F
:1084C00001399A4201D10120704713F8010B01F8DC
:1084D000010FF6E75B689A68064B9A4208D1D0E92B
:1084E000012305490132013BC1F89820C1F89C30B5
:1084F000704700BF38CD07008058002043F20403C6
:108500001A68084B9A4201BF43F20803186800F644
:10851000FF7020F47F600CBF20F00F004FF48050FC
:10852000704700BFDBE5B15108B5FFF7E7FF054B2A
:10853000D3F8B830184400F6FF7020F47F6020F0C4
:108540000F0008BD80580020F8B5094E094CA41B47
:108550000746E4080025A54201D10020F8BD06EB3E
:10856000C50338465B6898470028F7D10135F2E724
:1085700040D1070048D1070029DF7047024B062091
:10858000D3F85832184700BF8058002018DF7047D2
:1085900043690BB1C0681847704713DF704766DF47
:1085A000704762DF7047B5DF7047B1DF7047B0DFFB
:1085B0007047AEDF70477FB50023CDF80A30ADF8C5
:1085C0000E300B4BADF80610B3F86832ADF808303A
:1085D00001238DF80A300DF10603CDE90430054B77
:1085E00002A91888FFF7E5FF07B05DF804FB00BF9C
:1085F00080580020B857002010B5044686B01122DC
:10860000002101A804F06AFB2378082B0ED1394A17
:10861000B2F87032B2F87212013B9BB2A2F870321B
:10862000E9B1E3B90323A2F87012237062782378CA
:108630008DF805306021012A8DF804108DF8062090
:108640000FD00B2A53D12B4B002193F874228DF8B5
:10865000072083F87412042101A8FFF7ACFF06B0CD
:1086600010BD062B1DD0082B01D0032B3FD1D4E920
:108670000123110A8DF807208DF80810110C120E35
:108680008DF80A201A0A8DF80B308DF80C201A0C80
:108690001B0E8DF809108DF80D208DF80E300B2172
:1086A000DAE7E1688DF80710D4E90123080A8DF8AC
:1086B0000800080C090E8DF80A10110A8DF80B201D
:1086C0008DF80C10110C120E8DF80E201A0A8DF870
:1086D0000F308DF810201A0C1B0E8DF80D108DF830
:1086E00009008DF811208DF812300F21B4E7032115
:1086F000B2E700BF80580020ADDF7047AADF7047A7
:10870000A8DF704790DF70478FDF704786DF7047C4
:108710007FDF70477DDF70477CDF70477ADF70470F
:1087200076DF704775DF704774DF704773DF70471F
:1087300072DF704730B518228DB000210DEB0200BA
:1087400004F0CCFA282308931623ADF80630002352
:10875000CDF80E30CDF81230ADF81630204B03F2C4
:10876000752206210292022283F8752283F877127D
:1087700083F87922032159220124092583F87812EC
:1087800083F87A220DF10601FE2203F27E208DF895
:1087900018408DF82D40ADF80C5083F8764283F8E0
:1087A0007B22FFF7B7FFC8B9BDF8062083F87D52DA
:1087B000111983F87C12BDF80C301A44094BADF83E
:1087C0000C2002A906AA981CFFF7B2FF30B99878CE
:1087D000FFF7AAFF21469878FFF7A8FF0DB030BD3C
:1087E00080580020B85700206DDF70476CDF70475D
:1087F000062810B5044602D10020FFF7A5FE044B61
:10880000D3F894321BB12046BDE81040184710BD84
:108810008058002010F1080F30B51CD00F4A1049C5
:1088200000240025C0E91445C0E916120D4C0E4A7B
:108830000E4DC0E918420E4AC0E91A520D4A0267AD
:1088400002F17452A2F523020023A2F6924283643D
:108850004267184630BD0E20FCE700BF85AE67BBFF
:1088600067E6096A72F36E3C3AF54FA57F520E51E6
:108870008C68059BABD9831F10B50B689A684B6851
:108880000024C0E90243C0E9002294782344036134
:1088900092F90340234443614B68036101F10C03E7
:1088A0004361537803F0C003802B04BF043101619E
:1088B00010BD10B5836804460BB9002010BD0368D5
:1088C000012298470028F8D0A368013BA360F5E790
:1088D0002DE9F04F824685B00D464FF000084FF06D
:1088E000000900240DF10F015046FFF7E2FFF8B137
:1088F0009DF80F1001F07F025FFA82FB4FF0000C31
:10890000CDE900BC009AA4F1200CC4F1200322FAA6
:1089100003F302FA0CF71F431346A34048EA030887
:108920000B0649EA070904F1070404D4C5E90089E4
:1089300005B0BDE8F08F462CD4D10020F8E72DE932
:10894000F3480F4669461646FFF7C2FFA8B1DDE9B6
:1089500000BC00230BF001025FEA5C054FEA3B0418
:1089600013433B7919BF6FEA040B6FEA050CA3466A
:10897000AC46082B04D1C6E900BC02B0BDE8F088C3
:10898000042B09D1C6F800B05A46D317634506BF79
:108990005A4501200020F0E7022B04D10FFA8BF397
:1089A00033801AB2F1E7012B04D14FFA8BF3337005
:1089B0005AB2EAE70020E0E773B50D46694614466F
:1089C000FFF786FF68B12B79082B0CD1DDE9005643
:1089D000C4E90056DDE90023B34206BFAA420120E4
:1089E000002002B070BD042B05D1DDE9000120603C
:1089F00005460026EEE7022B03D10098208085B2C1
:108A0000F7E7012B05D1DDE90001207000F0FF053B
:108A1000EFE70020E5E737B50D4669461446FFF756
:108A200057FF30B12A79082ADDE9003103D1C4E9C2
:108A3000003103B030BD042A18464FEAE37108D173
:108A400023601A460B468B4206BF8242012000205B
:108A5000EFE7022A04D11BB223801AB2D317F2E740
:108A6000012A03D15BB223705AB2F7E70020E0E796
:108A70002DE9F3410F460DF107018046FFF719FF7D
:108A8000064620B90026304602B0BDE8F0819DF8C8
:108A90000740220613D504F07F0407250DF10701D6
:108AA0004046FFF706FF0028ECD09DF8072002F0B3
:108AB0007F03AB401C43130605F1070501D43C605E
:108AC000E1E7232DEAD1DDE773B50D4601A90446A0
:108AD000FFF7CEFF064618B90026304602B070BD3B
:108AE00094E80F0085E80F0001998A42F4D3A96049
:108AF000A3685B1AA360F0E730B5044685B015465D
:108B0000A9B90268114B9A4211D0102D06D82A46F5
:108B100069462046FFF7F0FF05B030BD10226946D8
:108B20002046FFF7E9FF0028F6D0103DEDE7A368E7
:108B3000AB4201D20020EFE723682A46204698473F
:108B40000028F7D0A3685D1BA560E5E7B98407009E
:108B5000F7B50E4601A907461546FFF789FFA8B1EC
:108B6000019A0123D3184FF0000404D2717801F068
:108B7000C001802901D1204608E031799942FAD319
:108B800029463846FFF7B8FF019BEC5403B0F0BD0F
:108B900073B50D4601A906461446FFF769FF88B173
:108BA000019AFF2A10D86B7803F0C003802B0BD0FA
:108BB0002979531C994207D32146304601F8012BED
:108BC000FFF79AFF02B070BD0020FBE713B5144613
:108BD00069460822FFF790FF18B1DDE90023C4E9D8
:108BE000002302B010BD13B5144604220DEB0201A0
:108BF000FFF782FF08B1019B236002B010BD13B5DF
:108C0000044605291FD8DFE801F0030F151E1E1CBE
:108C1000012201A92046FFF76FFF18B19DF904302A
:108C2000002BF5DB02B010BD082200212046FFF723
:108C300063FFF7E701A9FFF71BFF0028F2D0019AB5
:108C4000F3E70422F1E70020ECE710B543681A7857
:108C50007AB103F10C0242601A7B62B90168C36801
:108C6000C0E901128C782344036191F903100B448D
:108C70004361104620E059781A7901F03004302C15
:108C80001BD15C7B04F03004302C16D1997802693A
:108C9000521A02610022597811F0300F02BF816828
:108CA00001318160997B114402690A44026193F9A0
:108CB0000F301A444261012010BD01F0F004202C55
:108CC00003D1597911FB02F2E5E701F0C0018029D7
:108CD00008BF0422DFE70A4AD2F800347BB1094812
:108CE0000023D2F80815D940C90748BF03F5C07161
:108CF00003F1010348BF42F82100072BF1D170476F
:108D0000000001403546526EE5E7024B012283F830
:108D1000982270478058002037B56FF07F42154C7D
:108D2000057BD4F804358A4228BF0A46891A1344C1
:108D30004A1E942A23F07F4305F5A8729BBF963BF9
:108D400096314160416044F822300B4B4FF4F8609B
:108D500043F001039847094BAA00134400221A600C
:108D60001B680193019B4FF48033AB40C4F804337C
:108D700003B030BD00400240B0CD0700404102408A
:108D80001A4890F8992284B0002A2CD14FF08043E1
:108D9000A021D3F81834DB035EBF154B01221A6003
:108DA000144A0023136012680392039A124A136054
:108DB00012680292029A114A136012680192019A93
:108DC0000F4A82F824131021C2F8841151600D4A11
:108DD0000D49C2F8083501230B6002211360C2F867
:108DE000041380F8993204B0704700BF8058002007
:108DF000080000400041024040410240444102401E
:108E000000E100E0004002400840024038B5114B4C
:108E1000D3F80024CAB1D3F804450F4D40F61653D9
:108E20009C42B8BF1C46A4F54864FFF754FFEC61B0
:108E3000FFF7A6FF2846094B40F8143F2146FFF7ED
:108E40006BFF074B4FF480321A60064B012283F808
:108E50009A2238BD00000140B8570020098D070054
:108E600000E100E080580020000B013930B500EB34
:108E7000113101254FF08042814201D2002030BDE6
:108E800000F01F03440905FA03F3032C05D8DFE8BB
:108E900004F00206090CC2F800360130ECE7C2F813
:108EA0000436FAE7C2F81036F7E7C2F81436F4E7EA
:108EB000024B012283F89B22704700BF805800209C
:108EC00008B502F087FC08B502F084FC10B507284D
:108ED00026D8DFE800F004262525250425044FF0D8
:108EE000A0430322C3F844274FF40030C3F84827B7
:108EF0004FF48021C3F84C274FF48014C3F8502757
:108F00004FF40022C3F80805C3F80815C3F8082574
:108F1000C3F80845C3F80C05C3F80C15C3F80825B9
:108F200010BD4FF0A0434FF48022C3F808254FF442
:108F30000022C3F80C25F3E7013A024401398242CA
:108F400000D2704711F8013F02F80139F7E770B518
:108F500016460D46FFF7F0FF3246A9193044BDE82A
:108F60007040E9E70F4B30B50124C3F80445BFF367
:108F70006F8FBFF34F8F01EB8202401A914207D1EE
:108F80000022C3F80425BFF36F8FBFF34F8F30BDAE
:108F9000441851F8045B2560D3F80044002CFBD042
:108FA000ECE700BF00E001400A4B0222C3F80425B1
:108FB000BFF36F8FBFF34F8FC3F80805D3F80024BA
:108FC000002AFBD00022C3F80425BFF36F8FBFF344
:108FD0004F8F704700E001402DE9F04F0022C9B0EB
:108FE0004B780C781B0443EA0463CC7823438C78D9
:108FF00043EA042308AC0431A3500432402AEFD1E1
:10900000234638AD996B1E464FEAF14282EA71421F
:1090100082EA9122716A366853F8044F31440A4457
:109020004FEAB44181EAF41181EAD4010A449D4235
:10903000DA63E7D1036D0093436D0193836D02936F
:10904000C36D0393036E0493436E0593836E06937F
:10905000DDE905ECC36E009CDFF8AC900793DDE919
:109060000381DDE901659B4600274FEAF12383EA8E
:10907000B11383EA716A59F827301A4608AB53F8DE
:1090800027301A44134653442CEA010201EA0E0A1F
:1090900082EA0A021A444FEA743A86EA05035A44FD
:1090A0008AEAB40A06EA050B234083EA0B038AEA3C
:1090B000B45A01379A44402F02EB0803E346524466
:1090C000A8461AD1009F1744019A076522444265B9
:1090D000029A32448265039A2A44C265049A1A4469
:1090E000059B02660B444366069B73448366079B9D
:1090F0006344C36649B0BDE8F08FF44635468E46FA
:10910000264619461446B0E7B8CD07002DE9F041D0
:1091100010F10807044622D012B90020BDE8F08102
:10912000E9B10D468E184FF00008B542F5D0A36C9A
:1091300015F8011BE2180133402B1172A364F4D11E
:1091400039463846FFF748FFD4E9142312F500707A
:1091500043F10001C4E91401C4F84880E5E70E209A
:10916000DCE7436843B1026891680B44436052688E
:10917000934204BF0023436070477FB50D4D0E4CF2
:109180000E4E01A8FFF76AF970B9B4420295F8D003
:109190000394039B002BF4D00198D3E9002190475E
:1091A00002A8FFF7DEFFF4E7052801D002F012FB6A
:1091B00004B070BDB8CE070090D1070098D1070069
:1091C00030B5124DADF5017D4FF4FA740DF1020189
:1091D00003A8ADF80240FFF743F980B90C4B0D4AE4
:1091E00001959342F2D00293029B002BEED003A88C
:1091F000D3E90021904701A8FFF7B3FFF4E7052862
:1092000001D002F0E7FA0DF5017D30BDC4CE0700B4
:1092100068D1070070D10700024B93F89C3203B16C
:10922000CEE770478058002013B50A4B00930A4AD6
:109230000A4B01939342044601D0019B0BB902B043
:1092400010BD2046D3E9002190476846FFF789FF0B
:10925000F3E700BFD0CE070090D1070088D1070008
:1092600013B50C4B00930C4A0C4B019393420446EC
:109270000AD1002002B010BDD3E90021204690475A
:1092800030B16846FFF76DFF019B002BF4D1F0E78A
:109290001120EFE7DCCE070088D1070080D107005E
:1092A000044B93F8A8020122B0FA80F083F8B122AF
:1092B0004009704780580020034B93F8A802003003
:1092C00018BF0120704700BF805800200020704761
:1092D0000020704708467047084670470E4B30B56F
:1092E00043600E4B012003F5287151E8002F42EA3C
:1092F000000441E8004595F0000FF6D152B993F80B
:10930000B41283F8B01203F52E71C3E903125A6147
:10931000034A9A61002030BDE8CE07008058002043
:10932000DC011C0070B50568AB6886B004460E46CB
:1093300073B114220021684603F0D0FCA3680593A2
:109340002379019633B1012B0ED0AB68684698475C
:1093500006B070BD01238DF8003023690293E368E5
:10936000039363690493F0E702238DF80030E36808
:109370001B030293F5E728DF7047034BD8690030E1
:1093800018BF0120704700BF80580020F0B5154677
:109390001F4687B004460E46144B012253E8001FB7
:1093A00041EA020043E8000C9CF0000FF6D131B115
:1093B000112016E006EB0130FFF7F6FD01318D427A
:1093C000F8D1FEF7F9FFA368002463B102226846D2
:1093D0008DF80020CDE90146CDE903450597984772
:1093E000204607B0F0BD1846FBE700BF9C580020A0
:1093F0002DE9F043174687B0814688461E46012472
:10940000134A52E8005F45EA040342E8003191F054
:10941000000FF6D1CDB9B20839464046FFF7A2FD9C
:10942000FEF7CAFFD9F808206AB10E9B8DF80040FC
:109430006846CDE90158CDE9037605939047284663
:1094400007B0BDE8F0831046FAE71120F8E700BF47
:109450009C58002008B5FEF7AFFF002008BD024B66
:1094600043600020704700BFF4CE070030B53AB12A
:109470001368DB430A4D0144884204D1D84330BD10
:109480004FF0FF33F6E710F8012B5340082213F09A
:10949000010418BF2C46013A84EA5303F7D1EBE7E5
:1094A0002083B8ED70B504460D4601B30B78042B4C
:1094B00004D8DFE803F01E05031E1E00112070BD56
:1094C0000D4ED6F89C3190B1013312D100221821F3
:1094D0000430FFF7CBFF07222060214606F5CE704F
:1094E000FFF74AF80028EAD102232B70E7E70E20A5
:1094F000E5E70820E3E700BF00F0070010B5074CE0
:10950000FEF7FCFF0022D4F8B810FFF7AFFFD4F845
:10951000BC301B1A5842584110BD00BF8058002073
:1095200010B5084B9A685AB150B9EFF3108172B672
:10953000054A1C6814605C685460986001B962B6A2
:10954000002010BD8058002000E100E013B5044663
:1095500002A8002300F8013DFEF7CAFE084AD2F82F
:109560009434591CC2F89414064AA41AF422B4FB89
:10957000F2F41C709DF80700FFF7D2FF02B010BD97
:10958000805800206C670020E0E773B51B4C94F80E
:10959000B43273B3012084F89C04FFF761FE1128F4
:1095A0004FF0000627D00220FFF73EFE02A800F889
:1095B000016DFEF79DFEFEF759FF05469DF8070079
:1095C00084F8B462FFF7ACFF55B9A36884F89C54E3
:1095D0004BB1236823F4800323600320FFF724FEAC
:1095E000284602B070BD064B4FF48002C3F88020BD
:1095F000F3E70825F4E73546F2E700BF805800207E
:1096000000E100E038B51449D1F8A02412F00103BC
:1096100020D0124B98421DD0114B18884FF6FF7482
:10962000A04213D042F00402C1F8A0241321FFF796
:1096300077F880B90B4DC82445F001054FF47A4006
:10964000A847013CFAD1BDE838409EE79878FFF77B
:109650006BF8F8E7002038BD8058002040D10700A3
:10966000B857002000CF070037B5224D95F8B44217
:10967000002C3DD10123204685F89C34FFF7F0FDF6
:10968000112832D02046FFF7CFFD1B4B1868019000
:1096900002A800F8054DFEF72BFE184901A8FEF7B9
:1096A000E7FE0446B0FA80F0400985F8B4029DF860
:1096B0000300FFF735FFC4B9114985F89C4491F8C0
:1096C00016335A09EC231341DB0705D5AB682BB9D8
:1096D0004FF480030B6005E002F07CF82B6843F444
:1096E00080032B600120FFF79FFD204603B030BDB3
:1096F0000824FAE78058002006CF0700C78E07002D
:1097000000E100E038B5831E012B54D82A4C94F8B0
:10971000A832002B4FD0022B0AD1032833D00022CD
:10972000D4F8A434C4F8AC221A793AB1012A24D06E
:1097300094F8B1329BBBBDE838403FE0D3E9051255
:109740008D1A142D94BF521914329A619142EFD19F
:1097500002284FF000030CBF19460D21D4F8A404D1
:1097600084F8A832FFF7DEFDB4F8A824B4F8AA34D0
:109770009A42DDD1FEF714FEDAE71A6901321A6166
:109780005B699A42E3E7D4F8AC320133082B02D884
:10979000C4F8AC32CCE70023C4F8AC32D8E794F874
:1097A0009C3443B194F8B43213B1BDE83840ECE6D0
:1097B000BDE8384058E738BD8058002037B53E4CEA
:1097C00094F8A832002B33D104F10C0353E8022F94
:1097D0001FFAA2F0D988884202BFBFF32F8F00235F
:1097E0000DE0D98908449989884228BF401AC2EA05
:1097F000004043E802010029E8D14FF001038DF851
:1098000003300192019A9DF80330C4F8A82403F0B4
:10981000FF0133B9C4F8A4140023C4F8A43203B080
:1098200030BDE36803EB1243C4F8A434002BF3D03B
:10983000022384F8A832D4F8A4341A79AAB1012AF0
:109840002AD018460321FFF76DFD002384F8A832C3
:10985000C4F8A432B4F8A824B4F8AA349A42DED1E9
:1098600003B0BDE83040FEF79BBDD3E90520121AD6
:10987000142A28BF1422D3E903159208012A0144AF
:1098800038BF01222844FEF777FE58B11128D8D1FD
:10989000012384F8A832C2E7D3E903021044FFF79A
:1098A0006AFDF2E794F8B032002BB8D101460220ED
:1098B00003B0BDE8304025E78058002000F0FD03EC
:1098C000012B09D1054B002283F8B122421E5042E0
:1098D000504183F8B00271E7704700BF8058002004
:1098E0000A4930B401F52973012253E8000F40EA18
:1098F000020443E8004595F0000FF6D120B991F835
:10990000B1320BB930BC59E730BC704780580020E9
:109910000C4B1B78062B10D10B4B1B681A070CD174
:109920000A4B186800F0F003302B08D000F0E0007C
:10993000A0F1400358425841704700207047012071
:10994000704700BFE00F00F0E40F00F0E80F00F0F8
:10995000094B1B78062B0CD1084B1B681A0708D142
:10996000074B186800F0F000A0F13003584258414E
:1099700070470020704700BFE00F00F0E40F00F0D8
:10998000E80F00F02DE9F341054602A80026264C19
:1099900000F8016D0F46FEF7ABFC94F8AC1494F898
:1099A000AD24D3B2B4F8AE24934238BF0133C9B268
:1099B00038BFDEB2B1422FD094F8AD6494F8AD3424
:1099C000DBB29A4286BF0133DBB2002384F8AD34A8
:1099D0009DF80700FFF7A4FD4FF6FF739E4220D0CD
:1099E000D4F8B0344FEAC60803EB080243F83670E7
:1099F000ADB1D4F8B434B4F8B804182206FB003082
:109A0000294603F060F9D4F8B034434418229A8010
:109A1000002002B0BDE8F0814FF6FF76D8E79580D0
:109A2000F6E70420F5E700BF8058002030B5204855
:109A3000C0F5FE21C1F30B0389B023B9B0F5FE2FA9
:109A400001D8FFF711FAEFF305824FF480531C6839
:109A500041F204031968002383F3148883F3108808
:109A600083F3118883F31388C2F308023AB984F3AD
:109A700008884FF0FF339E46084709B030BD4FF0CD
:109A8000FF35203CCDE90033CDE902330493CDE925
:109A900005514FF08073202269462046079303F05A
:109AA00012F984F30888AE466FF006031847E4E71E
:109AB000008007002DE9F743114C1E462368054638
:109AC00088461746D3F8109001460023012220460D
:109AD000C84718B1032003B0BDE8F0834FF4DC722F
:109AE0004146304603F0EFF823680097DF683246BE
:109AF0004FF4DC7329462046B8470028EBD0E9E74D
:109B00004C580020F0B503881F2B8BB0044600F0A2
:109B1000EC8029D8112B58D006D8012B00F0F68004
:109B2000102B43D00BB0F0BD142B00F077811A2B13
:109B300035D0132BF6D10023ADF812300223ADF847
:109B4000103001AB0593B94B1C8804AA42F60521DD
:109B50002046FEF7D1FD0346002842D1024685216A
:109B60002046FEF7D5FDB2E0512B00F0D5800ED88F
:109B7000232B00F0B280502B3CD0212BD2D10AA94C
:109B8000002321F8283D8088FEF7BEFD9FE0552B7D
:109B900000F08580562B00F0AF80522BC2D10023FD
:109BA0001A461946A088FEF700FD90E09F4B828878
:109BB0001A809F4AD2F8BC241C460AB10120904763
:109BC0009C492088FEF7AEFDACE7984B984C4FF6C9
:109BD000FF721A80D4F8A024550704D4FEF7AAFD1A
:109BE00008B101F0F7FDD4F8BC34002B9AD0022064
:109BF000984797E78E4FC288B7F860329A4291D162
:109C00000AAE002506F8185D3046FEF771FBD7F85E
:109C1000942407F598639A4212D9511EC7F89414F8
:109C200012F8012C844BF42502FB053507F2D143D1
:109C300097F898245B1ADBB29A4238BF87F89834B9
:109C40009DF81000FFF76CFC002D3FF46BAF228AEB
:109C500004F11201284603F036F81822002130469C
:109C600003F03CF808238DF81030744B0593744BC7
:109C70000693744BCDE90735238AADF82430B7F845
:109C8000B834172B03D82846FFF760FC4AE76E4923
:109C90003046FFF777FE00283FF444AFF3E7C18872
:109CA000F62918D8CB1E98070DD0CB1F9BB2013BCD
:109CB0005A4202F0030203F0030301F1FF3158BFDF
:109CC0005342C91A89B2594B1888FEF76CFC002818
:109CD0003FF428AF85E7F721F5E7002202A9808845
:109CE000CDE90222FEF70EFDF1E7504B00F108012D
:109CF0001888FEF717FDEAE78379002B7FF412AF8F
:109D00004A4B13211888FEF70BFDE0E7474B002173
:109D10001888FEF744FCDAE78379002B3FF402AFA2
:109D2000022B7FF4FFAE42490089B1F868229042CD
:109D30000D467FF4F7AEA27B012A7FF4F3AE00223A
:109D4000CDE90422ADF808308DF8103001AB0120C8
:109D50000393364B8DF81600208AADF818001B8847
:109D6000608AADF81A0004F114000790ADF80A20DB
:109D7000B1F86C1202AA1846FEF7BEFC60B99DF855
:109D80000420D20708D440F2FD1204A91846ADF809
:109D90001420FEF70CFCC5E6002204A91846ADF815
:109DA0001420FEF704FC014600287FF4BBAE182205
:109DB00004A802F093FF237D204A0592022B204A3B
:109DC0008DF81030069220D0062B0ED0012B0ED12C
:109DD0001E48FEF7B9FBB5F87232A5F87032637D04
:109DE0000893D4F81630099301E0637D0893069B2D
:109DF000002B3FF497AEB5F8B834172B7FF692AE30
:109E0000114904A8FFF7BEFD8CE6A27D637D43EAFD
:109E10000223A5F87232A5F87032E8E700231A464B
:109E200019468088FEF772FC51E700BFB857002042
:109E3000805800200ACF07006C670020DC5A002001
:109E4000F98507008995070065AB070040D1070039
:109E500008B510461A4602F036FF002008BD08B5C6
:109E600010461A4602F02FFF002008BD2DE9F041F0
:109E70001B4C1C4BD4F8D4249A429AB0804629D16A
:109E8000D4F8D8345A79202A27D19B689847D4F837
:109E9000D8647579454528BF454607462A4604F2E9
:109EA0001C5102A8FFF748F8727904F23C510AA845
:109EB000FFF74DF800970AAB2A4602A904F2DC40EE
:109EC00002F052FD002848F2425018BF00201AB09C
:109ED000BDE8F08148F24050F9E748F21150F6E74A
:109EE000805800207052464D70B54FF4DC72044625
:109EF00008480D4602F0D8FE20B954B12346BDE80B
:109F00007040184722462946034B0248BDE870407E
:109F1000D0E570BD00E00700FC5D0020C31E70B5F9
:109F20000446154D042B16D8DFE803F00303151C77
:109F30001C00124E327C4FF480339340104AC2F81A
:109F40000833FEF71DFF30460E4B40F8043F4FF438
:109F50007011FEF7E1FED5F834375BB12046BDE85D
:109F60007040184700230849084885F89B32FFF7DE
:109F7000BBFFF0E770BD00BF80580020B85700203D
:109F800000400240919F070000F00700C18E0700CB
:109F9000034B04490448002283F89B22A4E700BF36
:109FA0008058002000F00700C18E070030B51A4B22
:109FB000D3F8CC20D3F8C440D3F8E850AC2A85B00D
:109FC0000DD1D3F8D43015481D44E41A2246A5F526
:109FD000804102F069FE30B9002005B030BD15B9EE
:109FE000FEF7A2FA0546224629460C4802F05CFE1E
:109FF0000028F1D00A4BD3F800340BB1FEF76BFE0A
:10A0000010220021684602F069FEA4086846019506
:10A010000294FEF7BBFAE0E78058002000800700BA
:10A020000000014010B50D4C0022582104F1A4009D
:10A03000FFF71CFA21464FF4DC7241F8A00F0848E4
:10A0400002F032FE40B104F5E76304F1A001002202
:10A050000348BDE810402DE510BD00BF805800202A
:10A0600000F0070038B50546FFF7DCFF044618B9D5
:10A0700002492846FFF738FF204638BD2059002006
:10A080002DE9F04F02F6FF7587B02B0B03932A4B97
:10A090000493144693F89A220E1A074688464FEA0C
:10A0A000163B0AB9FEF7B2FEBBF1080F28BF4FF00E
:10A0B000080B4FEA0B33DFF8849005930CB9224666
:10A0C00036E0039B1D489B4528BF9A46D9F80030CF
:10A0D00038BF059E1B6938BFDA461D4652464FF011
:10A0E0000003394628BF2646A847024600BBD9F8D8
:10A0F00000100090CA68F31C154623F00303424683
:10A1000039464846A847024690B9039BA3EB0A0389
:10A110000393049BD3F8D030A41B3744B0441E44AF
:10A12000049BC3F8D060FFF79DFF02460028C5D00E
:10A13000104607B0BDE8F08F805800204C58002032
:10A1400008B5154A42F20403D2F8E810C85803F1E2
:10A15000A34303F5471303F2D753984218D1D2E92A
:10A160003432934216D003F580501944884203D10B
:10A170000020BDE8084075E7D21A02F6FF7222F40B
:10A180007F6222F00F02FFF77BFF0028F0D008BDAE
:10A190000320FCE70020FAE78058002008B50C22D5
:10A1A000002102F09BFD024B0022C3F8D02008BD25
:10A1B000805800202DE9F0437C4B7D4F1422DB1B9F
:10A1C00091B0B3FBF2F3064602FB03F50024B84658
:10A1D000AC4232D1774C1822002102A802F07EFD59
:10A1E00004238DF80830D4F8F080D4F8903A9845DC
:10A1F00040F0D48094F88C29D4F86C7A04F6F803F3
:10A2000004F69415002A08BF1D464FF020094A465F
:10A2100005F16F010DEB0900CDF80490FEF78CFEFF
:10A2200001AB04F5276241463846FEF7D5F8D0B1B8
:10A2300017256148FFF7B2FF2DE058F80430E01908
:10A240000BB91434C4E7DB6998470028F9D0594B9F
:10A25000B3F8B834172B03D958493046FFF792FBAF
:10A2600011B0BDE8F0834A4608A904F5276002F062
:10A270001BFD0028DCD195F855306BBB0122C4F8DA
:10A28000C0306B68C4F8CC20C4F8A830D4F8E830EB
:10A29000C4E93183012520220021494802F01EFD36
:10A2A000F422FF21474802F019FD0A2D88BF0B3D1B
:10A2B0004FF00003C4F8D030C4F8E87084BF84F8CD
:10A2C00074520B2502A88DF80950D6E9011398475E
:10A2D0003D48FFF7C7FEC3E703F00209DB0757D588
:10A2E00042F20403F95803F1A34303F5471303F2C1
:10A2F000D753994250D1AB6D03F5FF5203F6FF736C
:10A300001F32C3F30B03D31A42F20802BA589A421F
:10A3100042D343F204031B688B4214BF0123002382
:10A320001CD14FF440531B78142B81BF43F214030C
:10A33000264A1B68B3FBF2F307F5005298BF0023CF
:10A340001278142A89BF42F214020022BA581F4917
:10A3500088BFB2FBF1F29B1A18BF012393B1B9F188
:10A36000000F19D01A48FFF719FFAC23C4F8CC30FE
:10A37000AB6DC4F8D430B9F1000F87D06B68C4F866
:10A38000AC3083E7B9F1000F14BFAC23A523EDE790
:10A39000AA23C4F8CC30EEE705254AE701238DF85F
:10A3A000093002A8D6E90113984759E76058002000
:10A3B0004C5800208058002044590020B5A10700C7
:10A3C000585900207C5900207D85070040420F002D
:10A3D000385900202DE9F04813681F2B04460E461B
:10A3E000154670D910F1080770D000296ED0836C23
:10A3F000C118372B4FF0800003F10102087252D8C8
:10A400000833234404F13F0200219A4248D1D4E9A1
:10A410001423A06C0821E1FB002322FA01F19346EA
:10A4200084F8472084F84610110C120E84F844205A
:10A430001A0A9C4684F8433084F842201A0C1B0EFA
:10A4400084F8451084F840303946C4E914BC84F8D7
:10A4500041203846FEF7C0FD711E1823A26DDA4078
:10A4600001F8012FE26DDA400A71226EDA400A72B9
:10A47000626EDA400A73A26EDA400A74E26EDA4063
:10A480000A75226FDA400A76626FDA40083B13F1F0
:10A49000080F0A77E2D120232B600020BDE8F08866
:10A4A00003F8011FB1E700233F2A08D9394638468F
:10A4B000FEF792FD3822002102F010FCA7E70132DE
:10A4C000A118CB71F0E748F21450E7E70E20E5E75A
:10A4D00030B54268527802F00F01082987B0034670
:10A4E0000FD103691C6800250CB907B030BD2146A7
:10A4F00025736846FEF7C0F96846FFF7E9FFA468D0
:10A50000F2E712F0C00120D102F0300010280ED185
:10A510005A6911705A6818695378946803F00F03E8
:10A52000072B09D10146204600F017F8DDE7900619
:10A53000F0D55B691970D8E71279214614B102F0A1
:10A54000C2FBD2E702F0CAFBCFE78029CDD1006978
:10A55000002192060160C8D5EBE77FB50023CDE965
:10A5600002318378194490F9033004911944037837
:10A570000591CDE900003BB16846FFF7A9FF6846A9
:10A58000FEF763FB0028F7D107B05DF804FB2DE967
:10A59000F04155686B7813F0C00E88B006468C46C3
:10A5A000144604D0BEF1400F6CD0002548E05F494E
:10A5B00003F00F0201EB820103F03003102BD1F8FE
:10A5C000F4711DD006D8002BEFD122692946B84777
:10A5D000054635E0202B19D0302BE6D16369297868
:10A5E0001970072A0AD1636820691A79714602F046
:10A5F00075FB636821699868FFF7AFFF22693EE049
:10A60000636901221A7022696168E0E7BCF1020FF8
:10A61000D4F8148027D1042A25D804A9FEF754FAC7
:10A6200005460028C1D0069B2BB1616898F8003020
:10A630004A799A4208D8059B7360069B002BB4D1D7
:10A64000284608B0BDE8F0810879226900FB0322A2
:10A6500004A8B84728B198F80030013388F80030D2
:10A66000E1E70546E7E798F8003021692A7902FB1F
:10A6700003126979994298D9013388F800306168EA
:10A680003046A4E717693B6807F1040813B9FEF7E1
:10A69000B6FA9DE7022913D104A9FEF715FA00289E
:10A6A00083D03B686168424604A898470546002865
:10A6B0003FF47BAF069B002BF3D1059B7360BFE794
:10A6C00001292BD009D305297FF46FAF04220DEBAC
:10A6D0000201FEF711FA042525E0002501AB591906
:10A6E00001350B2D3FF461AF01223046FEF704FA2D
:10A6F00000283FF45AAF01AB2B4413F9013C002B67
:10A70000ECDB0B4B049301ABCDE90535002307933C
:10A710003B686168424604A8984759E7082201A9A6
:10A72000FEF7EAF908250028EBD13EE720CD070027
:10A73000B98407002DE9F04F8B788FB00025CDE963
:10A7400004521A4491F903300692CDE90055CDE93F
:10A7500002111A44044607924FF00108A36823BB74
:10A76000DDE9033402A85D78FEF76FFA0028F7D11F
:10A7700015F0300F03D1039B1B7803B1013494B162
:10A780006309002293425AD10EAA02EB830304F01C
:10A790001F04C4F120044FF0FF3253F8383C22FA72
:10A7A00004F4A34209D1012008E008A92046FEF7DD
:10A7B0005FF930B9A368002BD2D000200FB0BDE8FC
:10A7C000F08F089EDDF80C90002EC9D0F70806F037
:10A7D0000706039B1A78974204D15B7803F00F02B7
:10A7E000082A32D102A8FEF730FA039B9945F0D12E
:10A7F000BD420DD8039A537803F00F03082B47D0BE
:10A8000002A8FEF722FA039B9945F3D14FF0FF35DA
:10A8100031462046FEF7F3F900289FD1CDE79B682B
:10A820001B789F4252D1494608A8FEF725F889F8BF
:10A830000C8008AA31462046FFF7A9FE43E05DF8E8
:10A8400022100131B9D101329CE713F0300F0FD142
:10A85000049B3F2B0CD85A090EA901EB820203F08E
:10A860001F0352F8381C08FA03F30B4342F8383C34
:10A87000D4F80C90B9F1000F04D002AB324639463F
:10A880002046C84702AA31462046FFF780FEC3E7AC
:10A890001578BD42BCD8069BD4F808A0D3F8009028
:10A8A000A368B9F1000F14D09A457FF457AFD9F8D7
:10A8B0000030D3F800B0BBF1000FB0D033463A46B9
:10A8C00049462046D84700283FF477AFD9F808908A
:10A8D000E6E79A459CD041E770B5104C104DD4F88E
:10A8E000D830C4F89C3A04F50F660E4A0E4BC4F8F3
:10A8F000942AC4F8A03A04F1FC0231462846002309
:10A90000C4F8982AC4E92633FFF727FE32462946C1
:10A9100004F69420BDE870400CE700BF805800208A
:10A9200038CF0700B9840700D5840700F7B5824CFB
:10A93000D4E936329A42264640F0F58094F8A43A9B
:10A9400053B1FDF7F1FDD4F8C430C4F86C0AC4F873
:10A95000903A012003B0F0BDFFF7BEFF002800F0E1
:10A96000E48094F88C5925B994F8F038002B00F065
:10A97000DC800023C6F86C3AC6F8903A4DB16F4DB2
:10A9800096F8283AA5F199042022019225B91320BE
:10A99000E0E72B466A4CF7E783BB01AB694AD6E98F
:10A9A0002601FDF719FD38BB2A78402A24D1691CFD
:10A9B000654802F088F9644B03F11F02197810789A
:10A9C00003F8010B02F801199A42F7D25F4B03F129
:10A9D0001F021978107803F8010B02F801199A4246
:10A9E000F7D20198FFF742FA002840F09E8094F8D1
:10A9F00058302BB90F20ADE70A20ABE71620A9E7A6
:10AA000094F85930032BF5D894F87120032A40F0BC
:10AA10008E80227B002AEDD02269342A40F0898082
:10AA200043F20401227D0868494988422DD102B3CE
:10AA3000A169F1B104F11805002143F20C07C8B275
:10AA4000824201D8122085E755F821C03888844514
:10AA500001F10101F3D1227922B3012BA2681AD8A6
:10AA6000D6F8A81091428CBF00220122E2B9102032
:10AA700070E72BB9012AEED9A269002AEBD1E1E7F0
:10AA800013F1FF3218BF0122F7E712B1A269002AC1
:10AA9000D8D12279F1E7D6F8AC1091422CBF002230
:10AAA0000122E3E7012BA5D1012286F8A42A1BBBD2
:10AAB00094F8682002B3E56E002D9BD0C6F8905A3A
:10AAC000FDF732FD2349081AA84207D2FDF716FD0B
:10AAD000081AA84223D32048FFF760FB00231F4831
:10AAE0000124C6E92C34FFF759FBC6F8C450FDF722
:10AAF0001BFDC6F86C0A2CE713F0010503D094F88F
:10AB00005A5005B1E56D9B07D6D594F86030002BFF
:10AB1000D2D0134B626EC3F5FC239A4201D90420B4
:10AB200018E71544C8E7082014E7052012E71420A9
:10AB300010E711200EE700BF80580020A962002016
:10AB4000746100209C5D0020BC5D0020DC5D002065
:10AB5000DBE5B1510050070038590020445900206E
:10AB600000800700F0B5044689B0162200210DF1DF
:10AB70000A0002F0B3F823788DF8083001228DF82E
:10AB800009200C2B00F2D981DFE813F00D007F00C3
:10AB90000F007F007F00D7017F0075007F007300EA
:10ABA0001D00300079008DF80C20D4E9011302A8B3
:10ABB00098479DF80930012B00F0B281B74B052072
:10ABC000D3F85832ABE14FF08053D3F80021039211
:10ABD000D3F804210492D3F80C2192020692D3F800
:10ABE0001021920205921B690793DEE743F20403EA
:10ABF000AA491D68D1F8C020A948854214BF012385
:10AC00000223012A227C08BF01335AB902238DF89E
:10AC10000C30D1F8AC300493A24B0593C3F5FC2360
:10AC20000693C2E7012A12D1854210D14FF4405356
:10AC30001B78142B8ABF43F2140300231B68049370
:10AC40004FF48053059343F208031B68E8E79A42E8
:10AC50000BD201238DF80C30D1F8A8300493FDF706
:10AC60004DFC0590D1F8B830DAE7FF238DF80C30B1
:10AC70009BE7237CFAE7238AADF80C3095E7874BF6
:10AC80000720D3F8583298478FE7062B864A01D021
:10AC9000012B02D1216982F8241092F82410012995
:10ACA00006D0022900F08A80002382F82430D6E002
:10ACB000013B072B3FF679AF01A252F823F000BF0A
:10ACC000E1AC0700ABAB0700ADAD070079AD070005
:10ACD000ABAB0700A7AD0700ABAB07001BAD070090
:10ACE0006E4D0320D5F8583298476669002E00F063
:10ACF0008580B6F5807F00F290800021202205F14A
:10AD0000D80085F8A41AC5F8D01001F0E7FFC5F8FF
:10AD1000D86001238DF8093047E7604DA68AD5F841
:10AD2000DC00D5F8D83032189A4223D82769284455
:10AD300032463946FC3001F0C6FFD5F8DC3005F16B
:10AD4000E002334431463846C5F8DC30FEF78EFB6E
:10AD50000123C5F8E0008DF80930D5F8DC30039305
:10AD6000D5F8E0300493E368002B3FF41EAF206970
:10AD700098471AE70323EEE7FFF7D8FD0A2805D91D
:10AD8000464B0B3883F874020B23C3E701288DF878
:10AD900009007FF40AAF0020FFF764F900283FF4B0
:10ADA00004AF0A23B6E74FF4807305933B4BD3F807
:10ADB000DC20D3F8E03003920493F6E6013B072B46
:10ADC0003FF6F3AE01A252F823F000BFEDAD07004D
:10ADD000ABAB0700DFAE0700EFAE0700ABAB070081
:10ADE00025AF0700ABAB070063AE07002B4B93F812
:10ADF000A42A0AB908238DE762690AB9032389E7FF
:10AE0000C2F30B0131B1D3F8F410D3F8900A114416
:10AE10008142F3D1B2F5805F01D904237AE7D3F8F8
:10AE2000F410D3F8900A55188542E3D8C3F8E4200B
:10AE3000D3F8EC20C3F8F010C3F8D010C3F8E82022
:10AE40001A486269D3F86C6A036802F6FF721D69DA
:10AE5000120B00233144A84700283FF4A6AE052377
:10AE600058E70E4D95F8A43A002BC3D0D5E93C2104
:10AE7000A38A521AD5F8E4101A448A42BED80B4865
:10AE8000D5F8D0600268D5F86C1AE7680097D768E3
:10AE900022693144B84758B1E36868E78058002018
:10AEA000DBE5B15100800700B85700204C58002066
:10AEB000A28AD5F8D0301344C5F8D030A68AD5F888
:10AEC000F0301E44C5F8F060A18A206905F1E8025F
:10AED000FEF7CCFAC5F8E800CDE9036065E6184B4B
:10AEE000D3F8E820D3F8F030049203935DE6144DD4
:10AEF000D5E93C23D5F8E410D31A8B427FF47AAF1E
:10AF0000D5F8E830C5F8EC3000212046C5F8E4104B
:10AF1000C5F8F420FFF74EF9D5F8583204209847C9
:10AF200009B0F0BD064BD3F8E820D3F8F030039316
:10AF30004FF480530492059337E60223EAE600BFFC
:10AF400080580020F0B585B00E468C6869460746EB
:10AF50001546FDF7B9FD88B1B06878B1737803F094
:10AF60003003202B03D129462046FFF7F6FA2A4664
:10AF700021466846FFF7DEFB019B7B6005B0F0BD14
:10AF80002DE9F347824601A80D4690469946FDF704
:10AF9000D5F910B3124BBDF80460DF68BC191CD0A2
:10AFA0001C220021204601F099FE0123237147F85D
:10AFB00006A0BDF80420BDF80630C4F808902D0B9B
:10AFC0009A42E560C4F8148001D1FDF7DDF9FEF77F
:10AFD00087FC002002B0BDE8F0870420FAE700BF3C
:10AFE000805800202DE9F347824601A88946904603
:10AFF0001F46FDF7A3F908B3114BBDF80450DE68F6
:10B0000074191BD01C220021204601F067FE00238A
:10B01000237146F805A00A9BA360BDF80420BDF883
:10B02000063067619A42C4E9038901D1FDF7ACF9A2
:10B03000FEF756FC002002B0BDE8F0870420FAE7D6
:10B040008058002013B5134C1422002104F52870F9
:10B0500001F044FE04F10C0353E8021FD888B1EB61
:10B06000314F4FF0000217BF89B240EA004041EA79
:10B07000004004E05968B1EB314F08BF012243E8BA
:10B0800002010029E8D18DF807209DF80730002043
:10B0900002B010BD805800202DE9F04FC94BD3F805
:10B0A000A02412F0010F95B0984640F08881C3F8B3
:10B0B000BC0403F59863C8F894341123013BDBB258
:10B0C000FF2B40F07081002314ADCDE90E331093B7
:10B0D00088F898340893022345F81C3D2846FDF76C
:10B0E00055FA0446002840F05A81B748FDF755FA52
:10B0F0000446002840F05381FEF7B6FA04460028C3
:10B1000040F04D81B14B089301460C22284601F0D6
:10B11000E5FD01260623089AADF83830294620209F
:10B120008DF834608DF83660FDF79CF921460C22CD
:10B13000284601F0D3FD089A8DF836402946402074
:10B140008DF837408DF83560FDF78CF921460C22DB
:10B15000284601F0C3FDF723089AADF8363029469A
:10B1600023208DF83460FDF77DF921460C22284616
:10B1700001F0B4FD089A8DF8346029463046FDF799
:10B1800071F921460C22284601F0A8FD4FF4B06366
:10B19000089A0D932946A120FDF764F90DF1500A94
:10B1A00021460C22284601F099FD9DF834305AF8CA
:10B1B000302D64F300032946A0208DF83430FDF7CC
:10B1C00051F95046FDF750F90446002840F0E78059
:10B1D000024618217E4888F89C62FEF747F97D49AF
:10B1E000D1F89C3198420BD11C2201F5CE717A48DE
:10B1F00001F069FDD8F8A03443F00203C8F8A03488
:10B20000112328468DF82030FDF7EEFA0446002879
:10B2100040F0C5809DF83530284601338DF8353033
:10B22000FDF7E4FA0446002840F0B980D8F8A034CD
:10B230009B0740F1BF80D8F8C00A684982B25046E7
:10B24000FDF76AFA0446002840F0A9806448FDF73B
:10B2500065FA0446002840F0A280624B4FF6FF7268
:10B2600014A91A804FF65963012021F8483D5E4A1F
:10B270008DF80A00FDF744FA0446002840F08F805C
:10B280005A4B04AA03F11007164618685968144669
:10B2900003C40833BB422246F7D155493046FDF777
:10B2A00080F9044600287AD101461C22284601F084
:10B2B00015FD9DF83430ADF8044043F004038DF8DB
:10B2C00034300223ADF80C3098F85E328DF80E3031
:10B2D0004FF00109C4F3072369F3030369F307136C
:10B2E0008DF80530E3B243EA090369F342038DF8B0
:10B2F0000630F423CDE90A4401AEADF82C3003AF9B
:10B300003C4BB8F85C020C9452462946CDE90876CD
:10B31000FDF7F4F9A3460446002840D101461C225B
:10B32000284601F0DBFC9DF83430ADF8044043F0D2
:10B3300018038DF8343098F85E328DF80E30C4F36F
:10B34000072369F3030369F307138DF805305FFAE8
:10B350008BF343EA090369F34203DBB243F01003C2
:10B360008DF806301723CDE90A445246ADF82C304B
:10B370002946214BB8F85C020C94ADF80C90CDE94D
:10B380000876FDF7BBF9044648B9FDF7D3F9044642
:10B3900028B9D8F8A03443EA0903C8F8A0342046F5
:10B3A00015B0BDE8F08FD8F89424511CC8F8941457
:10B3B000137083E6114801F099FC10493EE7002420
:10B3C000EDE700BF8058002000800700B85700203C
:10B3D000A0F1070000F00700286300202C63002084
:10B3E0000ACF0700B8570020DC5A00205CCF0700C6
:10B3F000DE5A0020E05A0020E85A002080D00700E2
:10B4000007B5094B0093094A094B0193934201D0B8
:10B41000019B13B903B05DF804FBD3E9002090470A
:10B420006846FDF79EFEF3E76CCF070080D107006A
:10B4300070D107001EF0040F0CBFEFF30880EFF38C
:10B44000098000F001B800BFF8B5044680691649CC
:10B45000164A10F8025C521A0C230E46B2FBF3F2A5
:10B460003DB92069534300229A4205D1012323604C
:10B4700013E04FF0FF30F5E7B758AF4201EB020E93
:10B4800006EB020C0ED1471C08D1DEF80850D4E9B7
:10B490000223D4E90001A8472060F8BDDCF804705D
:10B4A0008742F2D00C32DFE748D1070054D10700C1
:10B4B000044B002282B01A601B680193019B02B00A
:10B4C000704700BF0001014013B52A4B1A6852B102
:10B4D0002949D1F8C42A0132C1F8C42A00221A60CD
:10B4E0001B680093009B254B1A68A2B100221A60CA
:10B4F00023481B68027C0193019B4FF480339340E7
:10B50000204AC2F808338168044611BBC168E1B91A
:10B51000636803B198471C4B1A684AB300221A604B
:10B5200017481B6890F820200193019B4FF480334B
:10B530009340144AC2F808338169044669B1143053
:10B5400002B0BDE81040FDF7E7BB0430FDF7E4FBB7
:10B55000DEE70430FDF7E0FBDDE7C16911B114302F
:10B56000FDF7DAFB63691BB102B0BDE81040184774
:10B5700002B010BD0441024080580020404102400A
:10B58000B8570020004002404441024008B5FEF791
:10B59000BFF928B1784B794A1B68C3F304231360C1
:10B5A000FEF7D6F910B1764B764A1A60FEF7B0F97D
:10B5B00028B1754B754A1B68C3F342331360FEF71D
:10B5C000C7F920B1724AD36823F08073D360FEF7C5
:10B5D0009FF940B14FF080430022C3F80C21C3F81B
:10B5E0001021C3F83825FEF7B3F910B1694B0322D7
:10B5F0001A60FEF7ADF940B1674B05221A600122CF
:10B600009A6700229A603F225A60644B1B78062B8F
:10B6100050D1634B1B6819074CD1624B1B6803F078
:10B62000F003502B46D14FF080525F4BD2F80414F8
:10B63000C3F82015D2F80814C3F82415D2F80C1456
:10B64000C3F82815D2F81014C3F82C15D2F8141426
:10B65000C3F83015D2F81814C3F83415D2F81C14F6
:10B66000C3F84015D2F82014C3F84415D2F82414B6
:10B67000C3F84815D2F82814C3F84C15D2F82C1486
:10B68000C3F85015D2F83014C3F85415D2F8341456
:10B69000C3F86015D2F83814C3F86415D2F83C1416
:10B6A000C3F86815D2F84014C3F86C15D2F84424D6
:10B6B000C3F87025FEF72CF928B13C4B3C4A1B68B7
:10B6C00003F04F031360FEF723F948B14FF08043B6
:10B6D000D3F80024D20744BF6FF00102C3F800245E
:10B6E000344B1B68062B08D1334B1B68062B01BF5C
:10B6F000324A136843F480631360314AD2F88830C9
:10B7000043F47003C2F88830BFF34F8FBFF36F8FDD
:10B710004FF01023D3F80022002A03DBD3F80432C1
:10B72000002B24DA274B0122C3F80425D3F8002488
:10B73000002AFBD04FF010221521C2F80012D3F8D6
:10B740000024002AFBD04FF010231522C3F8042256
:10B750001C4B1A46D3F800140029FBD00021C3F873
:10B760000415D2F80034002BFBD000F033F8164B50
:10B77000164A9A6208BD00BF2403001040350140FC
:10B7800074C007400DF0ADBA440200103C05004003
:10B79000F0ED00E0A005004010560040E00F00F082
:10B7A000E40F00F0E80F00F000C000405802001065
:10B7B000E40E004030010010340100103C1700403E
:10B7C00000ED00E000E00140B85700200090D003F9
:10B7D00041DF7047BFF34F8F0549064BCA6802F43B
:10B7E000E0621343CB60BFF34F8F00BFFDE700BFA4
:10B7F00000ED00E00400FA0580B54FF4805190B0F0
:10B800000020FDF731FB08B1FFF7E4FFC948C0F5A0
:10B81000FC21C1F30B03002BF6D1B0F5FE2FF3D8BA
:10B82000FDF722FB01460028EED1C34CC34BC4F800
:10B830003437C34EC34A4FF0A0433046C3F84027C5
:10B84000C14B3360FDF70BFE02460028DCD1BF4838
:10B850000568691C73D058210430FDF707FE2A1AC9
:10B8600055425541BA4FD7F80080B8F1FF3F00F07C
:10B87000F98100225821381DFDF7F8FD804540F080
:10B88000F18185B15422B349381D01F00DFA4FF40E
:10B8900080720546B04907F15C0001F005FA15B960
:10B8A000002800F0E0814FF4DC72A949AB4801F0B8
:10B8B0000AFAFEF7B7FB0028A6D1D4F8CC30A52BA6
:10B8C00000F023813DD8012B48D04FF08042D2F8C0
:10B8D000003413F4803300F01F814FF48033C2F83A
:10B8E00000340023D4F8C020012A40F065813BB128
:10B8F000D4F8BC3023B1FDF701FE002800F05C81D4
:10B900004FF0A043D3F81035DB0340F155814FF0E1
:10B910008043D3F81C3513F0B10F40F04D81D4F8BB
:10B92000FC31013300F083814FF4FE20FDF73CFB36
:10B9300057228A494FF4FE20FDF714FB7CE115469F
:10B9400090E7AA2B00F0E580AC2BBED1FEF7F8FB08
:10B95000002840F0DC80FEF729FBD8E0D4F8E8109E
:10B96000D4F8C450FCF7CAFDD4F8D02010441144D8
:10B97000884240F08981FCF7C1FD00222946FDF78D
:10B9800075FDD4F8C830984202BF0123C4E92F03E3
:10B99000C4F8B85000257248FEF700FC0023714837
:10B9A00084F89832FEF75EFB00287FF42DAF002D5F
:10B9B00000F0FA80D4F8C030012B40F0F580D4F8C4
:10B9C000BC3023B1FDF79AFD002800F0ED804FF464
:10B9D000A02594F89A320BB9FDF718FA624BC4F817
:10B9E000B03403F58473C4F8B434002384F8AD3460
:10B9F00084F8AC341823A4F8B8342023A4F8AE3467
:10BA00004FF08043594FD3F81C25DFF8949112F082
:10BA1000B10F1EBFD3F81C2502F04E02C3F81C253F
:10BA20003A7C4FF480339340514AC2F80833FDF713
:10BA3000A7F938464F4B40F8043F2946FDF76CF90B
:10BA40004D4BC4F894320020FCF7D2FE4B4D4C4BCA
:10BA5000ED1AED0800279846BD4240F0B080494BF2
:10BA6000374833600021FDF739FC00287FF4CCAE65
:10BA7000D4F8D830002B00F0AB80FEF72DFF002863
:10BA800000F0A680D4F8C430002B00F0A180012380
:10BA90003D4F3E4D84F8A43AED1B0122ED0884F899
:10BAA000E82E0026B54240F09580022384F8E83E57
:10BAB000202237496846FDF74AFA0023C4F8D434F7
:10BAC0002022344B3448C4F8D8346946FDF73FFA95
:10BAD000324BC4F8D43494F8A43A002B40F082805E
:10BAE0002F4BC4F858322F4D002384F87432D5F808
:10BAF00000340BB1FDF7EFF894F8AC2494F8AD34B2
:10BB00009A4275D1FFF764FEF1E7FEF719FB0125B4
:10BB100041E7FEF74BFA3DE7D2F8201511F0A90FE7
:10BB20001DBFD2F8201501F05601C2F820150123DF
:10BB3000D8E600BF0080070080580020CD8E0700A7
:10BB40004C5800200C00030078CF070000F00700DD
:10BB500000E0070004F007005CF007002059002017
:10BB6000445900200B8D070048630020B85700207F
:10BB700000400240919F07001D9F070048D1070029
:10BB800040D10700E4CF070040D1070040D10700B3
:10BB900098CF0700D8CF07005C5D00207052464D5B
:10BBA000F18707000000014000233B493B4884F82F
:10BBB0009B32FEF799F927E64FF4701509E758F81C
:10BBC00037304846984700287FF41EAE013743E7D8
:10BBD00000235DE757F83630984700287FF468AFB8
:10BBE00001365FE7FEF7A2FE01283FF479AF0BE6CE
:10BBF00094F8AC34D4F8B024B4F8B864D4F8B404ED
:10BC0000DBB219B202EBC10703FB060052F8312088
:10BC1000B988904794F8AC34B4F8AE24DBB29A42B9
:10BC200086BF0133DBB2002384F8AC3464E7D4F878
:10BC30003C3201337FF478AE00231749184884F86A
:10BC40009B32FEF751F9174B4FF0FF32C3F88020BB
:10BC5000C3F880214FF000534FF480521A60FDF773
:10BC6000E5FED1E535B14FF4DC720B490E4801F029
:10BC70002AF822E64FF4DC7229460B4801F02EF830
:10BC80000123C4F8A43014E6AA1AFEF7F9F9002833
:10BC90007FF480AE6FE600BF00F00700C18E0700A2
:10BCA000B18E070000E100E0205900208B1802440B
:10BCB0008B4200D1704713F8010D02F8010DF7E730
:10BCC000C3F10803DB0070B50133002403A500BFF6
:10BCD0005B1920C940CAAD1920C0184720C940CA05
:10BCE000754120C020C940CA754120C020C940CA42
:10BCF000754120C020C940CA754120C020C940CA32
:10BD0000754120C020C940CA754120C020C940CA21
:10BD1000754120C06441204670BD00BF0000000096
:10BD2000C3F10803DB0070B50133002403A500BF95
:10BD30005B1920C940CAAD1B20C0184720C940CAA2
:10BD4000B54120C020C940CAB54120C020C940CA61
:10BD5000B54120C020C940CAB54120C020C940CA51
:10BD6000B54120C020C940CAB54120C020C940CA41
:10BD7000B54120C06441B4FA84F0400970BD00BFF1
:10BD80002DE9F04F08B4F8CA04B451F8042BA3FB12
:10BD9000028940F8048B4FF0000AE4FB629A4FF0EE
:10BDA000000BE5FB62AB4FF0000CE6FB62BC4FF012
:10BDB000000EE7FB62CE51F8042B4FF00008E3FBC6
:10BDC000628940F8048BE4FB629AE5FB62ABE6FB18
:10BDD00062BCE7FB62CE51F8042B4FF00008E3FB96
:10BDE000628940F8048BE4FB629AE5FB62ABE6FBF8
:10BDF00062BCE7FB62CE51F8042B4FF00008E3FB76
:10BE0000628940F8048BE4FB629AE5FB62ABE6FBD7
:10BE100062BCE7FB62CE51F8042B4FF00008E3FB55
:10BE2000628940F8048BE4FB629AE5FB62ABE6FBB7
:10BE300062BCE7FB62CE40F8049B40F804AB40F8DC
:10BE400004BB40F804CB40F804EB0CBC052B00F01D
:10BE50001E810C68A0F11400A1F11401A2F11402DA
:10BE600052F804EB4FF0000550F8046BE4FB6E56FB
:10BE700052F804EB50F8047BE4FB6E6752F804EBD5
:10BE800050F8048BE4FB6E7852F804EB50F8049BF6
:10BE9000E4FB6E8952F804EB50F804ABE4FB6E9AB5
:10BEA000A0F1140052F8044B51F804EB4FF0000CD1
:10BEB000E4FB6EC540F804CB51F804EBE4FB6E568E
:10BEC00040F8045B51F804EBE4FB6E6740F8046B48
:10BED00051F804EBE4FB6E7840F8047B51F804EB76
:10BEE000E4FB6E8940F8048B51F804EBE4FB6E9A96
:10BEF000A0E80006062B00F0CA800C68A0F118002C
:10BF0000A1F11801A2F1180252F804EB4FF000055C
:10BF100050F8046BE4FB6E5652F804EB50F8047BC7
:10BF2000E4FB6E6752F804EB50F8048BE4FB6E7888
:10BF300052F804EB50F8049BE4FB6E8952F804EBD2
:10BF400050F804ABE4FB6E9A52F804EB50F804BBD3
:10BF5000E4FB6EABA0F1180052F8044B51F804EB6F
:10BF60004FF0000CE4FB6EC540F804CB51F804EB35
:10BF7000E4FB6E5640F8045B51F804EBE4FB6E679B
:10BF800040F8046B51F804EBE4FB6E7840F8047B56
:10BF900051F804EBE4FB6E8940F8048B51F804EB94
:10BFA000E4FB6E9A40F8049B51F804EBE4FB6EABA3
:10BFB000A0E8000C072B6AD008B40C68A0F11C00A4
:10BFC000A1F11C01A2F11C0252F804EB4FF0000594
:10BFD00050F8046BE4FB6E5652F804EB50F8047B07
:10BFE000E4FB6E6752F804EB50F8048BE4FB6E78C8
:10BFF00052F804EB50F8049BE4FB6E8952F804EB12
:10C0000050F804ABE4FB6E9A52F804EB50F804BB12
:10C01000E4FB6EAB52F804EB50F804CBE4FB6EBCCF
:10C02000A0F11C0052F8044B51F804EB4FF0000350
:10C03000E4FB6E3540F8043B51F804EBE4FB6E562C
:10C0400040F8045B51F804EBE4FB6E6740F8046BC6
:10C0500051F804EBE4FB6E7840F8047B51F804EBF4
:10C06000E4FB6E8940F8048B51F804EBE4FB6E9A14
:10C0700040F8049B51F804EBE4FB6EAB40F804ABD2
:10C0800051F804EBE4FB6EBCA0E8001808BCBDE866
:10C09000F08F002310B51C465AB2914200DC10BD4F
:10C0A00040F823400133F7E710B500231A465CB28D
:10C0B000A14203DCB2FA82F0400910BD50F82340DF
:10C0C00001332243F3E74A11012350F8220001F023
:10C0D0001F0103FA01F108407047013949B20A060D
:10C0E000CBB205D4013900EB81025268002AF6D0A8
:10C0F00001335BB273B103F18042013A50F8222060
:10C10000002022B9013B00EB431318B270475208DC
:10C110000130F6E71846704710B500235CB2A24222
:10C1200000DC10BD51F8234040F823400133F5E70F
:10C1300010B5013A52B2130601D5002010BD50F8D7
:10C14000224051F822309C4205D802F1FF32F2D24F
:10C150004FF0FF30F2E70120F0E700EB8101002310
:10C16000884200D3704751F8042D43EA52030B6014
:10C17000D307F5E770B59DF910401E4623460546E6
:10C18000FFF79EFD30B9224629463046FFF7D0FF23
:10C19000012807D02346324629462846BDE870408C
:10C1A000FFF7BEBD70BD70B59DF910401E46234619
:10C1B0000546FFF7B5FD38B12346324629462846E5
:10C1C000BDE87040FFF77CBD70BD2DE9F04FB5B004
:10C1D00004AD9DF9F8401F46814623462846FFF7E7
:10C1E000CFFD24AB21463846CDE90235FFF775FF78
:10C1F000C0EB841005B26B4203F01F034FF0200622
:10C2000095FBF6F676B205F01F0814A858BFC3F1E7
:10C2100000083146FFF73DFFB8F1000F30B22DDDC9
:10C2200014AB002203EB8000C8F1200C1346A3429C
:10C2300019D327B27B00019314AB03EB870704F1FA
:10C24000FF3834AB012603EB8808002D53DA34ABFA
:10C2500003EB8606224656F8C81C4846FFF75CFFEB
:10C2600035B0BDE8F08F57F8236006FA08F10A43AD
:10C2700040F8232026FA0CF20133D8E714AB22460B
:10C28000394603EB8000FFF747FFD2E70FFA82FE43
:10C290005AF8C83C53F82EB034AB03EB820252F884
:10C2A000803CABEB03031B1A9B4502D034BF01203B
:10C2B00000205CF8C82C42F82E300131019B4AB2B4
:10C2C0009A42E3DB331A5E42214614A85E41FFF72F
:10C2D00044FF34AB03EB8403214653F8802C58F819
:10C2E000803C384643EAC273013D48F8803C2DB299
:10C2F000FFF733FFA9E734AB0021C6F1010C084674
:10C3000003EB860A03EB8C0CD8E730B51C4691B0E2
:10C31000054693F900306846FFF732FDD4F8AC309B
:10C3200069462846984711B030BD13460A46FFF7C4
:10C33000ECBF2DE9F04793F9006092B004468946BE
:10C340001046314615469846FFF7AEFE002840F0ED
:10C3500091804246494602A8FFF7E7FF434602AAFA
:10C3600021460AA8FFF7D1FF02A908464246FFF777
:10C37000DCFF43462A4649464846FFF7C6FF08F118
:10C380000407424629462846FFF7CFFF3B462A4688
:10C39000214620460096FFF7EDFE3B462A462946F9
:10C3A00028460096FFF7E6FE3B462A4621462846E9
:10C3B0000096FFF7F8FE43462A4621462046FFF73F
:10C3C000A4FF3B462246214628460096FFF7D2FEB0
:10C3D0003B4600962A4621462046FFF7CBFE2368BF
:10C3E000DB074AD533463A4621462046FFF768FC2C
:10C3F000314682462046FFF7B0FE06F18043013BFE
:10C4000054F8230040EACA7044F82300424621460B
:10C410002846FFF78AFF3B460AAA29462846009687
:10C42000FFF7C1FE3B460AAA294628460096FFF7B9
:10C43000BAFE0AA908463B462A460096FFF7B3FE15
:10C4400043460AAA21462046FFF75FFF02AA3B4661
:10C45000104621460096FFF7A6FE324629462046A2
:10C46000FFF75AFE49462846FFF756FE02A94846FE
:10C47000FFF752FE12B0BDE8F08731462046FFF7C5
:10C480006CFEC3E72DE9F0438BB0044615468946A0
:10C490000AAE1C22002103A800F020FC032346F86A
:10C4A000203D95F900802A46494620462F1DFFF77A
:10C4B0003CFF3B46324621462046CDF80080FFF740
:10C4C00072FE2B464A4621462046FFF71EFFCDF856
:10C4D00000803B4605F1840221462046FFF74AFED4
:10C4E0000BB0BDE8F0830000F0B5082289B00C461F
:10C4F0000646FFF711FECB6A03930B6B04934B6B5D
:10C5000005938B6B0693CB6B0793002708236A4632
:10C5100069466846CDE901770097FFF7D1FB08230C
:10C5200005466A4631463046FFF7CAFB236B039344
:10C53000636B0493A36B0593E36B0544CDE9063766
:10C540006A46082369466846FFF7BAFB0823054494
:10C550006A4631463046FFF7B3FB236A0093636AAD
:10C560000193A36A0293A36B0693E36B07930544BD
:10C5700008236A4631463046CDE904770397FFF732
:10C580009FFB636A0093A36AA26B0193E36A029321
:10C590000492636BE26B0393CDE90523236A07934F
:10C5A000054408236A4631463046FFF789FBE36AB3
:10C5B0000093236B0193636B0293236A0693A36A30
:10C5C0000793054408236A4631463046CDE904778F
:10C5D0000397FFF7A5FB236B0093636B0193A36B9A
:10C5E0000293E36B0393636A0693E36A07932D1A3E
:10C5F00008236A4631463046CDE90477FFF790FBC1
:10C60000636B0093A36B0193E36B0293236A039321
:10C61000636A0493A36ACDE90537236B07932D1A48
:10C6200008236A4631463046FFF77AFBA36B009336
:10C63000E36BCDE90137636A0393A36A0493E36A6A
:10C64000CDE90537636B07932D1A08236A463146F7
:10C650003046FFF765FB2D1A0D4C0FD435B9082273
:10C6600031462046FFF764FD01280FD008232246FB
:10C6700031463046FFF754FB2D1AEFE708232246D8
:10C6800031463046FFF71CFB2D18F7D409B0F0BD3A
:10C690008CD00700F0B5154689B01C4607460E46FB
:10C6A0001A4629466846FFF740FE23466A46394641
:10C6B0003846FFF72AFE23462A4669466846FFF7B2
:10C6C00024FE23466A4631463046FFF71EFE09B077
:10C6D000F0BD2DE9F0438BB01446129D15F9046BA3
:10C6E00000961F46804689462B460246214602A8F0
:10C6F000FFF759FD02A9129A0846FFF716FE129B92
:10C7000002AA41464046FFF700FE129B02AA2146BC
:10C710002046FFF7FAFD2B464A4639463846009632
:10C72000FFF741FD129A394602A8FFF7FEFD02A964
:10C730002B46424608460096FFF735FD02A92B46D8
:10C74000224608460096FFF72EFD2B46424621461C
:10C7500020460096FFF727FD129B22464946484691
:10C76000FFF7D3FD2B4602AA414620460096FFF76D
:10C770001AFD129B224639463846FFF7C6FD2B4666
:10C780004A46394638460096FFF70DFD324602A963
:10C790002046FFF7C1FC0BB0BDE8F0832DE9F04760
:10C7A000B3F9024088461E4604F11F0120230734D6
:10C7B00091FBF3F708234FFA87F994FBF3F49442C3
:10C7C00028BF144649460546FFF763FC224641460A
:10C7D000FFF76CFAB6F90230E4009C421FD9E41A64
:10C7E00005EB87010022C4F120078D420ED32436C9
:10C7F0004A4629463046FFF79BFC01280FD04B469E
:10C8000032462846BDE8F047FFF78ABA51F8040DD2
:10C8100020FA04F313430B6000FA07F2E5E7BDE8E2
:10C82000F08770B5036813F001050646144605D07D
:10C8300013460A460146FFF743FA054621463046AD
:10C84000FFF78BFC45B104F18042013A56F82230E3
:10C8500043F0004346F8223070BDF0B50F46A1B05A
:10C8600006461946384615461C46FFF71DFC20B102
:10C870003046FFF70EFC21B0F0BD2246394668462F
:10C88000FFF74AFC294608A8FFF746FC10A82146F6
:10C89000FFF7FFFB012318A81093FFF7FAFB2246CE
:10C8A00008A96846FFF744FC28B9224610A930467B
:10C8B000FFF732FCDFE7009BDA0709D42146684620
:10C8C000FFF74BFC2246294610A8FFF7AAFFE6E730
:10C8D000089BDB0707D4214608A8FFF73EFC224649
:10C8E000294618A8F1E7002823461CDD08AA694656
:10C8F0006846FFF715FA21466846FFF72EFC2246E8
:10C9000018A910A8FFF714FC002805DA10A923467F
:10C910002A460846FFF7D4F910A9234618AA084664
:10C92000FFF7FEF9CEE708A96A460846FFF7F8F9CF
:10C93000214608A8FFF711FC224610A918A8FFF706
:10C94000F7FB002805DA18A923462A460846FFF710
:10C95000B7F918A9234610AA0846FFF7E1F9BEE780
:10C960000048704788D007002DE9F04FEDB01F4612
:10C97000DDF8D8810590B8F9026098F900402023CD
:10C980001F3696FBF3F676B206F1FF3924AB00258D
:10C9900043F829506CAB03EB89034CA88A469346B5
:10C9A000394698F9012043F8805C43F8605CFFF752
:10C9B0007DF998F9012054A8B918FFF777F92146B5
:10C9C0004CA8FFF771FB0746002840F02E8154A8C1
:10C9D000FFF76AFB0290002840F0298108F1240348
:10C9E00032464CA918460393FFF7A2FB012840F0FA
:10C9F0002081324654A90398FFF79AFB012806903C
:10CA000040F017811CAD0CAF3346039A54A9284659
:10CA1000FFF723FF029B47F829305A465146384614
:10CA20004346FFF7BBFE39463846039B00962A462D
:10CA3000FFF7CBFB0DF5B879039B00962A464CA96E
:10CA400014A8FFF7C2FB224648460599FFF764FB8E
:10CA5000A30009EB030A0793059BA100591808F1ED
:10CA6000440B5046FFF758FB594634A8FFF754FBD8
:10CA7000A3000BEB03013CA8FFF74EFB08F10403F6
:10CA8000494634AA284600940493FFF78CFB53468A
:10CA90004A463CA934A8CDF80080FFF71AFE234689
:10CAA000049A29462846FFF7D8FE2A4651464846AA
:10CAB0004346FFF7EFFD029BCDE9083B059B31465E
:10CAC0003846CDE90A39FFF708FB3146814614A8FC
:10CAD000FFF703FB8145B8BF81461FFA89F909F1C9
:10CAE000FF3B0FFA8BFB59463846FFF7ECFA5946E5
:10CAF000071C14A818BF0127FFF7E5FA002814BF88
:10CB0000022300231F430DF1200A22465AF8277002
:10CB100024A83946FFF700FB0DF1B00BA300F9186C
:10CB20005846FFF7F9FA21462846FFF7B2FAA9F16D
:10CB30000209069B2B600FFA89F90DF1900AB9F1F1
:10CB4000000F23DA2346049A29462846FFF785FE7C
:10CB500043462A4659465046FFF79CFD3246514609
:10CB60000398FFF7E5FA012804D03346039A5046AC
:10CB7000FFF7D6F8013C64B24CAA23064BD5029BC2
:10CB8000B3FA83F040096DB0BDE8F08F43462A4602
:10CB9000D8F8A47059465046B84749460CA8FFF744
:10CBA00092FA4946071C14A818BF0127FFF78BFA11
:10CBB000002814BF022300231F4308AB53F827703B
:10CBC00027B32246394634A8FFF7A6FA079B3CA8AC
:10CBD000F918FFF7A1FA43462A463CA934A8FFF703
:10CBE00059FD049B009434AA514644A8FFF7DBFA90
:10CBF0005B4652463CA934A8CDF80080FFF769FD9A
:10CC0000434644AA29462846FFF77FFB09F1FF392E
:10CC10000FFA89F993E752F824105AF824304B4060
:10CC2000029919430291013CA7E72846ABE7384631
:10CC3000A9E70298A7E7000008B5074B044613B11F
:10CC40000021AFF30080054B1868836A03B1984751
:10CC5000204600F053F800BF0000000038D1070064
:10CC600070B50D4E0D4CA41BA4100025A54209D192
:10CC70000B4E0C4C00F044F8A41BA4100025A54258
:10CC800005D170BD56F8253098470135EEE756F8C6
:10CC9000253098470135F2E74458002044580020D9
:10CCA000445800204858002030B50024A24201D149
:10CCB000002007E0035D01340D1915F8015CAB425B
:10CCC000F4D0581B30BD10B5431E0A44914200D128
:10CCD00010BD11F8014B03F8014FF7E7024403467A
:10CCE000934200D1704703F8011BF9E7034613F89C
:10CCF000012B002AFBD1181A01387047FEE700BF4C
:10CD0000F8B500BFF8BC08BC9E467047F8B500BF38
:10CD1000F8BC08BC9E467047000000000000000000
:10CD2000158807000D910700D5A30700200000001B
:10CD30007800000000000000011104FC0400000065
:10CD400000000000021104FC0400000000000000CC
:10CD5000032104FC0410000000000000041101FF86
:10CD60000100000000000000051102FE04000000A8
:10CD700000000000061104FC040000000000000098
:10CD8000071104FC0400000000000000081701FF68
:10CD90002200000008D00700091001FF0100000078
:10CDA00004D00700000000000000000000000000A8
:10CDB0000338FDD870470000982F8A42914437719C
:10CDC000CFFBC0B5A5DBB5E95BC25639F111F1590E
:10CDD000A4823F92D55E1CAB98AA07D8015B831250
:10CDE000BE853124C37D0C55745DBE72FEB1DE80FC
:10CDF000A706DC9B74F19BC1C1699BE48647BEEF2B
:10CE0000C69DC10FCCA10C246F2CE92DAA84744AB5
:10CE1000DCA9B05CDA88F97652513E986DC631A82B
:10CE2000C82703B0C77F59BFF30BE0C64791A7D50A
:10CE30005163CA0667292914850AB72738211B2E92
:10CE4000FC6D2C4D130D385354730A65BB0A6A767A
:10CE50002EC9C281852C7292A1E8BFA24B661AA886
:10CE6000708B4BC2A3516CC719E892D1240699D696
:10CE700085350EF470A06A1016C1A419086C371E0F
:10CE80004C774827B5BCB034B30C1C394AAAD84EED
:10CE90004FCA9C5BF36F2E68EE828F746F63A57828
:10CEA0001478C8840802C78CFAFFBE90EB6C50A4BB
:10CEB000F7A3F9BEF27871C690D1070098D10700A8
:10CEC0000800000068D1070070D1070008000000CA
:10CED00088D1070090D107000800000080D107002A
:10CEE00088D10700080000000010000004000000C6
:10CEF000010000000010000004000000010000001C
:10CF00000338FDD87047010000070C000C0000003A
:10CF100058020000178A0700B98907003F890700F7
:10CF2000E78B0700CD8B0700918B0700518B070023
:10CF300045AF070000000000011704FC9800000046
:10CF40005CD00700021704FCDC0000002CD00700B6
:10CF500000000000000000000000000050EADA308D
:10CF60008883B89F604F15F30000C98E70D1070009
:10CF700080D10700080000005F9407005594070067
:10CF8000519E0700F19307008D930700D59207008B
:10CF9000CD9207007B930700354770F0B5F262B47D
:10CFA0001871CFB6D1C1C4C034E6F9BC7867940D0E
:10CFB000EBDF7848E8720823494E5C03276B02A731
:10CFC00079CAE653597F32560264833B0179A87DC2
:10CFD0000F660ADA66CA53DB4800280000204000CA
:10CFE00061C90700DD92070045B007005F9E07009A
:10CFF000E5AF070081AF0700D9920700D192070083
:10D00000B9920700000000000101000001000000CB
:10D0100000000000020500002100000000000000E8
:10D0200000000000000000000000000001070000F8
:10D03000980000005CD00700020100000100000021
:10D040000000000003050000410000000000000097
:10D05000000000000000000000000000011101FFBE
:10D060000100000000000000021702FE9400000012
:10D0700038CD0700000000000000000000000000A4
:10D08000446675546172670008200001FFFFFFFFCE
:10D09000FFFFFFFFFFFFFFFF000000000000000098
:10D0A0000000000001000000FFFFFFFF512563FCAE
:10D0B000C2CAB9F3849E17A7ADFAE6BCFFFFFFFF13
:10D0C000FFFFFFFF00000000FFFFFFFF96C298D8A0
:10D0D0004539A1F4A033EB2D817D0377F240A463A1
:10D0E000E5E6BCF847422CE1F2D1176BF551BF37AA
:10D0F0006840B6CBCE5E316B5733CE2B169E0F7C7D
:10D100004AEBE78E9B7F1AFEE242E34F4B60D22749
:10D110003E3CCE3BF6B053CCB0061D65BC8698763F
:10D1200055BDEBB3E7933AAAD835C65A33C30700C7
:10D1300085C40700E9C40700E45700200000000090
:08D1400099B0070005960700F5
:0CD1480000000000030000009B840700B2
:10D15400145D0020405D0020515D00206C670020BC
:04D16400F4000000D3
:08D16800059B07000000000018
:10D1700019920700000000007B91070000000000EA
:08D18000A1920700000000006D
:08D18800BD9807000000000043
:08D190000597070000000000F4
:08D19800A8B0FF7F01000000B8
:10D1A000FFFFFF0000000000000000000000000082
:10D1B000000000000000000000000000000000006F
:10D1C00001000000010000000090D00300000000FA
:10D1D000000000000000000000000000000000004F
:10D1E000000000000000000000000000000000003F
:10D1F000000000000000000000000000000000002F
:10D20000000000000000000000000000000000001E
:10D21000000000000000000000000000000000000E
:10D220000000000000000000000000002582070050
:04D230000182070070
:10D2340000000000000000009185070000100000BD
:04D2440000000800DE
:020000020000FC
:020000041000EA
:041014000080070051
:0410180000E00700ED
:04000003700082B552
:00000001FF
