:020000022000DC
:1060000000000120B5620200DD620200DF620200D2
:10601000E1620200E3620200E562020000000000AB
:10602000000000000000000000000000E762020025
:10603000E962020000000000EB620200ED62020073
:1060400061990200EF6202009D9D0200EF62020072
:10605000EF620200EF620200219C0200EF62020088
:10606000EF620200EF620200EF620200EF620200E4
:10607000EF620200EF620200EF620200EF620200D4
:10608000EF620200C1740200EF620200EF620200E0
:106090005D750200EF620200D9F80200EF620200B3
:1060A000EF620200EF620200EF620200EF620200A4
:1060B000EF620200EF62020000000000000000003A
:1060C000EF620200EF620200EF620200EF62020084
:1060D000EF620200EF620200EF62020000000000C7
:1060E00000000000000000000000000000000000B0
:1060F00000000000000000000000000000000000A0
:10610000000000000000000000000000000000008F
:10611000000000000000000000000000000000007F
:10612000000000000000000000000000000000006F
:10613000000000000000000000000000000000005F
:10614000000000000000000000000000000000004F
:10615000000000000000000000000000000000003F
:10616000000000000000000000000000000000002F
:10617000000000000000000000000000000000001F
:10618000000000000000000000000000000000000F
:1061900000000000000000000000000000000000FF
:1061A00000000000000000000000000000000000EF
:1061B00000000000000000000000000000000000DF
:1061C00000000000000000000000000000000000CF
:1061D00000000000000000000000000000000000BF
:1061E00000000000000000000000000000000000AF
:1061F000000000000000000000000000000000009F
:1062000010B5054C237833B9044B13B10448AFF3F0
:1062100000800123237010BD5824002000000000DE
:106220007024030008B5034B1BB103490348AFF3C7
:10623000008008BD000000005C24002070240300E2
:10624000154B002B08BF134B9D46A3F5803A002148
:106250008B460F461348144A121A09F0FBFC0F4BE9
:10626000002B00D098470E4B002B00D09847002001
:10627000002104000D000D48002802D00C48AFF3A7
:10628000008009F089FC2000290004F0F9FD09F0E4
:106290006FFC00BF000008000000012000000000AB
:1062A0000000000058240020E0350020000000001D
:1062B000000000000649074A074B9B1A03DD043B18
:1062C000C858D050FBDC00F0DFFDFFF7B9FF00003D
:1062D000EC2503002822002058240020FEE7FEE7DA
:1062E000FEE7FEE7FEE7FEE7FEE7FEE7FEE7FEE786
:1062F000F0B595B01C46164608460D4603F0CCF89E
:106300001A9B0D93CDE9086400242346082205A9B1
:1063100028460A948DF82C400C9403F0DBF8079B78
:106320000293BDF81830ADF80C30BDF81A30ADF856
:106330000E309DF814308DF8114003F00302012A4D
:106340001DD1BDF81440059EC3F3C203C4F38314EA
:106350008DF81030A20008230EA9284603F0BAF8E1
:10636000C6F3952608AB0093224602AB0EA9304631
:1063700000F0F8FB284603F093F815B0F0BD022AB0
:10638000F8D1BDF81640C3F3C203A4098DF810304C
:106390000827082C264628BF08263B4632460EA969
:1063A000284603F097F8A41B08AB02AA31460EA8B2
:1063B000374400F03BFC002CEBD1DBE7014B012222
:1063C0001A707047B52400207047000070B50E4D5C
:1063D00006460FCD88B06C460FC495E80F0084E8E0
:1063E0000F0008A9002E4FF00603084A41F8203D8F
:1063F00008BF0022064803F03DFA08B100F0B2FFE2
:10640000044B1E7008B070BDACFF0200BD630200FB
:10641000282200207424002007B5044B0093044A6E
:106420004023FFF765FF03B05DF804FB356402000D
:106430007524002038B50D4B0D4D002018700D4807
:1064400004782D5DD2B21C4665B1043004F0F4F836
:1064500008B100F087FF084B1A7812B12378002B9F
:10646000FBD038BD0C3003F0D7FEF1E7B524002097
:10647000DC350020282200207424002008B50848BC
:10648000084A0378D35C3BB1043004F06DF8002077
:10649000BDE80840FFF79ABF0C3003F055FEF6E761
:1064A00028220020DC3500200120FFF78FBF0000EC
:1064B00008B5FFF7F9FF0421034800F0B9FA034BD0
:1064C00001225A7108BD00BFC02503003C220020F4
:1064D000037813F0040216D003F00303012B03D05A
:1064E000022B09D0012070470A6800880232C0F3ED
:1064F000831002440A60F5E70B684288023303EB1D
:1065000092130B60EEE71046704700002DE9F04F44
:1065100089B00546861C08A8484C019200230F4606
:1065200000F8113D01F006FA23683B60D4E901232D
:106530001344226801339B1A04F21C4704F5836A52
:1065400004F21448B3421AD3019A0023002A6DD0F2
:10655000012262F3010343F0040365F38913216808
:10656000A2689DF80F000A4003320E4444F822301E
:10657000266001F003FA012009B0BDE8F08F012187
:10658000384602F007FA504602F01DFA404602F083
:106590001AFA0DF120096068D4F808B049F8100D16
:1065A00000EA0B00033004EB80004946FFF790FF40
:1065B000049BB0B90BEA030204EB8202D168059197
:1065C0009A1C013303EA0B0B04EB8B0C01F0030361
:1065D000012B0492DCF80CB020D0022B04D08346AF
:1065E0000BE00BEA0300DDE7BDF816309B0903332F
:1065F0004FEA1B4B02EB93030493404602F0E6F98B
:1066000008B1049B63605946384602F0C3F9D4E9E7
:1066100001231344226801339B1A93E7BDF8143019
:10662000C3F383134FEA1B4B1344E5E7022262F3E3
:10663000010343F0040365F39F5390E7882500208E
:106640000B4B0C48FF2210B59A600022C3F81824A7
:10665000C3E90022C3F8142483F8202402F0D5FEF5
:10666000044610B9044802F0F9FF204610BD00BFEF
:1066700088250020D0250300ECFF020030B50A4C2D
:1066800071B10A4A0A49121BD20800239A4201D169
:10669000002030BD31F82350854202D00133F5E7A8
:1066A000034654F83300F4E7E02403009025030088
:1066B00040240020094B013903EBC000032909D80D
:1066C000DFE801F00A0204060420704700797047F1
:1066D000407970470020704702207047E024030093
:1066E000034BD3E90030C31A58425841704700BFEA
:1066F000882500202DE9F04387B0FFF7F1FF06461B
:10670000002840F0FC807F4DC5F81804BFF34F8F80
:106710006868AC6806AF47F8100D2040033005EB01
:1067200080003946FFF7D4FE029B18B1D5F8182433
:10673000002A5FD004EA0302991C013305EB8202B0
:10674000234005EB8303D268DB68049302F0030364
:10675000022B0392029162D1BDF80E306A484FEAD3
:106760009318B8F1500FC14628BF4FF0500969F394
:106770008F1309F10801ADF80E3002F05EFE0746F6
:10678000002800F0A78002F087FE03A9002308225A
:10679000384602F094FE029924EA01060136B6005A
:1067A000B14535D95FFA89F97EB3F6B2A9EB06098E
:1067B000214003315FFA89F4B146544E05EB810163
:1067C00008234A46384602F07AFE36B109F108033A
:1067D00022463146384602F072FE029B08F1030859
:1067E00003EB98030293D5F81834002B4BD1D5F85E
:1067F00010445BE02A689A4204D86A60304607B0C9
:10680000BDE8F08304EA030088E740493446D7E74F
:106810002140033108234A4605EB8101DAE7012BC9
:1068200058D1BDF80C303848C3F38311062928BF6E
:10683000062161F3891302318900ADF80C3002F0B2
:10684000FCFD0746002845D002F026FE0023082262
:1068500003A9384602F033FE0026BDF80C20C2F32F
:106860008312B31C96424FEA8303BCD202994A1C9E
:1068700021400331029205EB81010422384602F0E7
:106880001EFE0136E9E7384602F00AFEFFF728FF50
:1068900080F00100C6B2B1E7E3685B7923B12368F9
:1068A00039461B6820469847E3681C68002CF3D1E2
:1068B000384602F0F5FD06A800F8114D01F03AF84F
:1068C000D5F818340BB9029B6B609DF8070001F0F6
:1068D00055F8DBE7D5F8104454B90D4B0D480E4977
:1068E000C01AC008000440F0020000F06FF8CDE7C5
:1068F000236820469B689847E3681C68ECE70026FD
:106900007CE700BF88250020D025030094250020C7
:10691000E024030008250300F8FF02002DE9F74FEB
:10692000284C80460F46924601A9012218469B46F4
:10693000D4F80890FFF7EAFD88B3019D0026A91C52
:106940005E4506EB010234D100211F4801F0E1FF52
:1069500080F310006A1C02EA090204EB82020004C0
:1069600005EA0903033340EA1840D06014F82320F5
:1069700068F3C50204F8232034F8232066F3891253
:1069800024F8232054F82320012167F39F2244F8A0
:10699000232061F301026FF3820204F8232094F8AC
:1069A00020341BB1FFF7A6FE0028FBD103B0BDE8E1
:1069B000F08F09EA020204EB82025AF82630D36013
:1069C0000136BDE788250020A429002000231A46AF
:1069D000FFF7A4BF13B502AC012344F8042D2246EF
:1069E000FFF79CFF02B010BD07B5CDE900230223DD
:1069F0006A46FFF793FF03B05DF804FB1FB5CDE9CE
:106A00000123069B039301AA0323FFF787FF05B029
:106A10005DF804FB1FB5CDE90023069B0293079B9D
:106A200003936A460423FFF779FF05B05DF804FB82
:106A300030B5134AD2F810440023214651B9C46836
:106A40002371D2F810445CB9C2F81004C268116016
:106A5000184630BDC9680D799D420AD00968EDE736
:106A6000E468C16824680C60D2F81024D268106011
:106A7000EEE701330A2BE0D14FF0FF33E8E700BF28
:106A80008825002038B5094A0123D2F8104482F83D
:106A900020341D4604B938BDE3685D712368204683
:106AA0005B689847E3681C68F4E700BF882500200E
:106AB00010B5037A052B0C460FD0437A23B1084A50
:106AC0000849204601F0E5FF0749204601F0E1FFB3
:106AD0002046BDE8104001F0D1BF002AF8D0F3E70E
:106AE00043000300DF1803006500030073B5C3888B
:106AF00004460D4633B1144A00921449144A2846FC
:106B000001F0C7FF217A05291CD0637A4BB1A08818
:106B1000FFF7D0FD0F4B104953F82020284601F015
:106B2000B8FF227A0D4BA08853F822600021FFF7AE
:106B3000A5FD0B4903463246284602B0BDE8704029
:106B400001F0A7BF02B070BD430003005000030076
:106B50004800030010000300DF1803007400030066
:106B6000680003002DE9F04385B01F460C9D00230B
:106B700006460C46904695F80C902B7329463846ED
:106B8000FFF7B4FFB8F1060F09D8DFE808F00412E8
:106B9000181F283340003146284601F07AFF0022B2
:106BA00029463846FFF784FF85F80C9005B0BDE80C
:106BB000F08322683146284601F06BFFEFE7D4E905
:106BC00000233146284601F064FFE8E7A3680093FC
:106BD0003146D4E90023284601F05BFFDFE7E36894
:106BE0000193A36800933146D4E90023284601F0BD
:106BF00050FFD4E723690293E3680193A3680093ED
:106C00003146D4E90023284601F043FFC7E7636912
:106C1000039323690293E3680193A36800933146C9
:106C2000D4E90023284601F034FFB8E708292DE90C
:106C3000F84F80460E4617461C4638D8002593F874
:106C40000C901D7319461046FFF750FFDFF880A027
:106C5000DFF880B0AE422CD918F8052059462046FE
:106C600001F017FF0135082DF4D11749DFF868B09E
:106C7000204601F00EFF0025AE421FD918F805A0EE
:106C800008F0AEFF50445946437813F0970F14BFF5
:106C900052462E22204601F0FCFE0135082DEBD194
:106CA000012221463846FFF703FF84F80C90BDE827
:106CB000F88F5146204601F0ECFED3E70349204609
:106CC00001F0E7FEE9E700BF3E0003003C000300DF
:106CD0003A0003003400030040000300054A4FF06F
:106CE000A043105CD3F8043523FA00F0C04300F051
:106CF00001007047D7000300044B1A5C0123934046
:106D00004FF0A042C2F80C35704700BFD700030017
:106D1000044B1A5C012393404FF0A042C2F808359F
:106D2000704700BFD700030008B50020FFF7F0FF51
:106D30000120FFF7EDFF0220FFF7EAFF0320BDE887
:106D40000840FFF7E5BF08B50020FFF7D5FF012099
:106D5000FFF7D2FF0220FFF7CFFF0320BDE8084076
:106D6000FFF7CABF074A4FF0A041105CD1F80435C5
:106D70000122824022EA03001340C1F80805C1F84D
:106D80000C357047D7000300054A4FF0A043105C54
:106D9000D3F8103523FA00F0C04300F0010070472B
:106DA000D30003000D2809D00E2809D00F2809D0E0
:106DB00010280CBF03204FF0FF30704700207047B1
:106DC0000120704702207047014B185C704700BFDC
:106DD000D3000300C20708B501460CD54FF0A0430D
:106DE0000322C3F84427C3F84827C3F84C27C3F845
:106DF0005027FFF799FF8B070AD54FF0A0430C22CD
:106E0000C3F83427C3F83827C3F83C27C3F8402712
:106E100008BD00000C4B1B78062B10D10B4B1B68D8
:106E20001A070CD10A4B186800F0F003302B08D079
:106E300000F0E000A0F140035842584170470020A4
:106E400070470120704700BFE00F00F0E40F00F032
:106E5000E80F00F0094B1B78062B0CD1084B1B6880
:106E60001A0708D1074B186800F0F000A0F13003B2
:106E70005842584170470020704700BFE00F00F0B3
:106E8000E40F00F0E80F00F008B5FFF7C3FF28B1EA
:106E90007D4B7E4A1B68C3F304231360FFF7DAFFC0
:106EA00010B17B4B7B4A1A60FFF7B4FF28B17A4BD5
:106EB0007A4A1B68C3F342331360FFF7CBFF20B15C
:106EC000774AD36823F08073D360FFF7A3FF40B104
:106ED0004FF080430022C3F80C21C3F81021C3F8FF
:106EE0003825FFF7B7FF10B16E4B03221A60FFF78A
:106EF000B1FF40B16C4B05221A6001229A67002253
:106F00009A603F225A60694B1B78062B50D1684B20
:106F10001B6819074CD1674B1B6803F0F003502B1B
:106F200046D14FF08052644BD2F80414C3F82015B8
:106F3000D2F80814C3F82415D2F80C14C3F8281595
:106F4000D2F81014C3F82C15D2F81414C3F8301565
:106F5000D2F81814C3F83415D2F81C14C3F840152D
:106F6000D2F82014C3F84415D2F82414C3F84815F5
:106F7000D2F82814C3F84C15D2F82C14C3F85015C5
:106F8000D2F83014C3F85415D2F83414C3F860158D
:106F9000D2F83814C3F86415D2F83C14C3F8681555
:106FA000D2F84014C3F86C15D2F84424C3F8702505
:106FB000FFF730FF28B1414B414A1B6803F04F03F4
:106FC0001360FFF727FF48B14FF08043D3F8002448
:106FD000D20744BF6FF00102C3F80024394B1B688D
:106FE000062B08D1384B1B68062B01BF374A1368A4
:106FF00043F480631360364AD2F8883043F4700358
:10700000C2F88830BFF34F8FBFF36F8F4FF010235C
:10701000D3F80022002A03DBD3F80432002B2FDA46
:107020002C4B0122C3F80425D3F80024002AFBD0FE
:107030004FF010221521C2F80012D3F80024002AC4
:10704000FBD04FF010231522C3F80422214B1A461F
:10705000D3F800140029FBD00021C3F80415D2F89E
:107060000034002BFBD0BFF34F8F19491A4BCA686D
:1070700002F4E0621343CB60BFF34F8F00BFFDE724
:10708000164B174A1A6008BD240300104035014012
:1070900074C007400DF0ADBA440200103C0500403A
:1070A000F0ED00E0A005004010560040E00F00F0B9
:1070B000E40F00F0E80F00F000C00040580200109C
:1070C000E40E004030010010340100103C17004075
:1070D00000ED00E000E001400400FA054422002039
:1070E0000090D0032DE9F04F3B4F89B000263B4B79
:1070F0001B78F5B2AB4202D809B0BDE8F08F384B2F
:10710000196811F835000124A0F12002C0F1200314
:1071100004FA02F924FA03F349EA0309D7E9002340
:1071200004FA00F8CDE9042302EA080203EA09039D
:10713000134301EBC50B4CD0DDE9042322EA08021E
:1071400023EA0903C7E90023079102F05FFD0799CD
:10715000844611F83500A0F12002C0F1200324FA82
:1071600003F304FA02F21A4304FA00F300931D4BEE
:107170000192DDE90045D3E9002314401D40224679
:107180002B465FFA8CF40025CDE90445049CA0F160
:107190002005AC400394049CC0F1200124FA01F1C5
:1071A000039C0C430499039481400291DDE902455C
:1071B000AB4208BFA2420CD19BF801104B1E5942B2
:1071C0005941A1EB0C02DBF804305142514103B1AB
:1071D000984701368BE700BF782A0020442A002018
:1071E000802A0020702A00202DE9F84F0646244806
:1071F00000F090FB002841D10123A6F12001C6F147
:10720000200203FA01FB23FA02F203FA06FA1D4BED
:10721000D3E900014BEA020B00EA0A0801EA0B0974
:1072200058EA09021F4623D1304602F0EFFC164B04
:10723000B8B1D3E9000140EA0A0441EA0B05C3E909
:107240000045D7E900234AEA02044BEA0305C7E9EF
:1072500000450E4B0A4819680022BDE8F84F00F0BF
:1072600015BBD3E9000120EA0A0421EA0B05E6E791
:1072700020EA0A0421EA0B05C3E90045BDE8F88FBE
:107280004C2A0020782A0020702A0020482A00205A
:10729000042A2DE9F34105460C4616463AD902F078
:1072A000EDFBD8B11C4B1D491D601D4BDFF88480E0
:1072B0001C701C4B00221E600023C1E900231A49E8
:1072C000C1E90023013CE4B200260327FF2C0CD1C6
:1072D000164A1748002100F0C7FA03E002F096FBB7
:1072E0000028DFD002B0BDE8F08123B205EBC30275
:1072F00001A992788DF8052015F833008DF8066005
:1073000042468DF8047002F0C3FB013CE4B2002851
:10731000DCD0E7E70720E5E7802A0020702A00207C
:10732000442A0020482A0020782A0020E570020024
:10733000DC000300E971020070B5084D084E00241E
:107340002B789C4201D3002070BD3368012113F8D3
:10735000340002F015FC0134F2E700BF442A00209B
:10736000802A00201FB50021039001AA44F20100E9
:10737000CDE9011100F004F805B05DF804FB000050
:1073800010B572B6FFF77EFBFFF7B4F90028FBD10A
:10739000104B114C1149E41AE408240444F0010094
:1073A000FFF714FB0E4B1B68DB0700D500BE0D4931
:1073B00044F00200FFF70AFBBFF34F8F0A490B4B63
:1073C000CA6802F4E0621343CB60BFF34F8F00BF83
:1073D000FDE700BFE024030008250300E0000300F0
:1073E000F0ED00E0EC00030000ED00E00400FA0521
:1073F000094A537891780133DBB2994208BF0023E0
:10740000117899421FBF03705078182303FB0020A6
:1074100014BF043000207047842A002073B505464D
:1074200002A8002400F8014D0E4600F083FA0DF189
:107430000600FFF7DDFF90B106700A4B9DF80620AD
:1074400045605A709DF8070000F098FA24B9064B81
:107450004FF48012C3F80021204602B070BD04240E
:10746000F0E700BF842A002000E100E0024B4FF467
:107470003C6043F0010318470001030038B50C4B92
:107480000C4C4FF40032C3F8802001254FF48033B8
:10749000C4F84833C4F808336560FFF7E7FF064BCC
:1074A000A56000241C60FFF7E1FF044B1C7038BD91
:1074B00000E100E000100140A02B0020912B0020F3
:1074C000F8B51F491F4B0025C1F84051C1F8445180
:1074D000C1F84851C1F84C51C1F80051C1F80451EC
:1074E0001B684BB3D1F8044517490968641A24F0A6
:1074F0007F442F461A68A24209D8A41A15441A7C60
:10750000DE691AB11F74D3E905209047AEB90F4B5D
:107510000F4A197813788B4205D10133DBB2022B65
:1075200008BF0023137012780A4B43F822500A4B0D
:107530004FF48012C3F80021F8BD3346DAE700BFEC
:1075400000100140A42B0020A02B00209C2B002029
:107550009D2B0020942B002000E100E02DE9F74F47
:107560009E4A9F49137809789E4D99423CD0013339
:10757000DBB2022B08BF002313709B4912789B4B90
:107580000F6853F822003B1823F07F4300220B6062
:107590002B6816461446944613B942B12B6006E098
:1075A000196881420ED902B12B60091A19604FF097
:1075B00001082B68DFF83CA200930027BEB9DFF872
:1075C0003CB260E0401A0C44D968C3F800C0D3F85C
:1075D0001CE031B13A1922F07F42C3E90121DE619A
:1075E0001E4601227346D7E70026B046E1E734463F
:1075F000F6697D4A63681268DFF804C2A068991AC8
:1076000021F07F41614500F2A58001442160012203
:1076100022742A680023C4E90133E361002A40F0A0
:10762000A2802C60CAE75A1C9BF80210D2B2914289
:107630008BF8002004BF00228BF80020182202FBE8
:1076400003B32A6819799C68022974D003297ED073
:10765000012918D1217CB1B9DA6862601A69A26087
:107660005A69E2609B69A361614B1B78002BC0D013
:107670006160BEE79C4200F093809946DB69002B75
:10768000F8D1002323749BF800309BF801209A4224
:10769000C9D12B682FB9009A934202D1B8F1000FDB
:1076A00043D0002B79D0D3F800A0524D4E4BD5F8E3
:1076B00004751C68DFF84C813E1B98F8003026F0FA
:1076C0007F4603369BB94FF48033C5F84433C5F881
:1076D0000433494B4FF400324FF00109C3F88021C5
:1076E0001A60C5F80090FFF7C1FE88F80090B24517
:1076F0002CBF5444A41924F07F44C5F84045D5F864
:107700000435DB1B23F07F43E41B033324F07F4469
:10771000A3420AD9D5F80435C5F84035FFF7A6FECF
:10772000354B4FF40032C3F80021314B00221A7060
:1077300003B0BDE8F08F13469146A0E71174D269FB
:107740000123002AFAD1002B9DD02A609BE7002359
:107750001946F6E7D31A23F07F43834234BFC31A96
:107760000023236053E721681368994213D8591AFC
:107770001160E26155E7091AD8691A4638B1034623
:1077800018688842F7D3401A1860184613462160DB
:10779000E061DC6112E71346F2E7FFF76FFEC4E732
:1077A0004C450DD1D3692B6053B90F48019201218B
:1077B000CAF8081003600E4B1970FFF757FE019AC4
:1077C000E1692368C9F81C1011B1086803440B6013
:1077D0002B689A4218BF012753E700BF9C2B00205B
:1077E0009D2B0020A42B0020A02B0020942B0020F8
:1077F000902B00200010014000E100E0842A0020CE
:10780000FEFF7F00912B002008B5FFF737FE104BDD
:1078100000200B2218809A700E4B18600E4B1870C7
:107820000E4B18700E4B4FF48012C021C3F880210C
:1078300083F814131A6002F18042A2F56F22C2F895
:10784000080583F81113074BD2F804251A6008BD08
:10785000842A0020A42B00209C2B00209D2B00209C
:1078600000E100E0A02B0020074B9B784BB132B128
:1078700028B10368187C20B959745A6170470720F1
:1078800070470820704700BF842A00202DE9F74385
:107890001D4FBB7805460E4690469BB390B3042916
:1078A0002ED9436973B3437C02A80024012B00F84E
:1078B000014D0CBF8946A14600F03CF80DF10600D1
:1078C000FFF796FDD0B101230370104B4560D3F84C
:1078D0000435C0E90498C0E902369DF806307B7093
:1078E0009DF8070000F04AF824B9094B4FF48012C4
:1078F000C3F80021204603B0BDE8F0830424EFE77D
:107900000724F7E70824F5E7842A00200010014047
:1079100000E100E0064A92783AB130B1426922B102
:10792000002202740221FFF779BD0820704700BFD2
:10793000842A002070B5EFF3108672B60C4A946862
:1079400001239CB993600B4B0B4DD3F88010294059
:107950001160C3F88050D3F8841051604FF0FF32AB
:10796000C3F88420047006B962B670BD0370FAE7EC
:10797000D035002000E100E0FC06FFBD10B5084B4B
:107980009A685AB150B9EFF3108172B6054A1C6873
:1079900014605C685460986001B962B610BD00BFA5
:1079A000D035002000E100E070B5064E0546002409
:1079B00056F824300BB1284698470134042CF7D1EF
:1079C00070BD00BFB42B0020033080B240F2FD3305
:1079D000984230B51FD8124B1A783AB91C895D8984
:1079E0002C440444A4B2B4F5806F0AD31A7DA2B922
:1079F0009A8BDC8B2244024492B2B2F5806F0CD297
:107A000001220A801446142202FB04335A891044CE
:107A10005881002030BD0920FCE70720FAE700BFAD
:107A2000E82B00200B4A0C4B5188142000FB01313D
:107A3000CB6833B90420496810700122074801F06F
:107A4000ADBA05230649137002238B80012200235F
:107A50000968F3E7CC2B0020E82B0020402400200D
:107A6000B02C002007B5002305490093054A09689A
:107A70000548082301F0FCF903B05DF804FB00BFE2
:107A8000B02C0020140103004024002007B500237F
:107A9000009301460823034A034801F0E9F903B0C3
:107AA0005DF804FB0C0103004024002013B5002303
:107AB0000C46009301460423074A084801F0D8F910
:107AC00038B9074B142202FB04340123237402B09B
:107AD00010BD0E20FBE700BF08010300402400207A
:107AE000E82B002037B50A480A4B42689C88196881
:107AF00053880325033305709BB2002000909B0040
:107B000001EB8401044801F0B3F903B030BD00BFBC
:107B1000CC2B0020B02C00204024002010B50146C2
:107B2000044800F02AFE1C220446002108F092F8C6
:107B3000204610BD9C2C00204388033300EB8303B8
:107B4000994209D382884FF6FF739A4206D0008883
:107B5000B0FA80F04009704702207047012070475A
:107B60002DE9F8430223DFF860800B800D461746AD
:107B700000F5805600F108044FF00109B4420FD21D
:107B8000236801330CD031462046FFF7D5FF48B1BA
:107B90000FB187F8009002280BD14FF480632B803F
:107BA000BDE8F883A368D8F80020934201D9C8F84B
:107BB00000302B886288033313442B80638803339F
:107BC00004EB8304DAE700BFE02B002070B5144A11
:107BD000142303FB00200B6844680D4604F580560F
:107BE0009BB15C88033403EB8404B4420BD223685A
:107BF000013308D031462046FFF79EFF012809D007
:107C000005D30228F1D1002003E00834EDE72C6011
:107C1000012070BD6388033304EB8304E5E700BFF4
:107C2000E82B002073B5436805460C466BB3254A24
:107C3000D1688B4229D31269934226D813F00302EC
:107C400023D121490089098988421ED12868996871
:107C500088421AD11D494868834203D900F58050F3
:107C600083420ED38A6993420DD902F58052934222
:107C700009D2012323800020B0FA80F0400902B02D
:107C800070BD1346F6E70A20F6E7002323801E4660
:107C90002388012B01D90020F1E7019601A9208852
:107CA000FFF794FF18B9238801332380F0E7019B85
:107CB0002A6899689142F1D16B60034B1B892B8133
:107CC000DDE700BF40240020CC2B0020E82B002063
:107CD0002DE9F8431C461F4B1B7806460F461546F8
:107CE000002B32D0002A32D0002C30D0DFF86C804C
:107CF0004FF01409A388012B01D90A201BE009FBCE
:107D000003F318F80330C3B1A3880133A380F1E76C
:107D100023681EB19988328891420ED11FB119880B
:107D20003A88914209D19B682B6023686B600A4BAB
:107D30001B892B810020BDE8F8832146A088FFF72E
:107D400045FF0028E4D12060DEE70220F3E70520AC
:107D5000F1E700BFC42B0020CC2B0020E82B002033
:107D600008B5074B191D5888FFF730FF18B1BDE85B
:107D70000840FFF7B7BEBDE80840FFF753BE00BF9D
:107D8000CC2B00202DE9F04FA04FDFF8A49289B052
:107D90000646B8463B6823B949469D4800F027FD92
:107DA0003860D8F8005029784B1E052B00F213815B
:107DB000DFE813F0060076007600070107015D0199
:107DC00026B1944B00225A60012424E02B79032B26
:107DD0001DD8DFE803F01502424D8F490B78022BC6
:107DE000084631D00B7D022B4FF001032ED1142217
:107DF0005343C2180020C8545068FFF747FE03E001
:107E000001232B71FFF72EFE002800F0D480814B58
:107E100000225A600E241422002103A807F01AFF42
:107E200041F61D539C4208BF0024D8F8003004944A
:107E30001A78023A042A00F2D381DFE812F0B40182
:107E4000C001E301EB01F2010023D0E7714A137096
:107E50000023536041F61D54DDE77049704800234C
:107E600002222B718A800122096801F097F8CBE782
:107E70006A4C00262E712068674DFFF707FE694B9C
:107E8000D4F800C05A8814235343EA18EE545168BA
:107E90002160A188C2F804C011810222A280B3E748
:107EA000B5F814A0AA7DDFF870B11423AEB1022A90
:107EB00006D903FB0AB3EA88198903320A441A81F6
:107EC000142303FB0ABAEB88BAF80A20C3F57F43F0
:107ED000FD331344AAF80A3076E703FB0AB3188986
:107EE0005C6804EB8004062A05D8DFE802F0274D21
:107EF00035431D5967000F24AB7D022B07D914228F
:107F000002FB0AB2EB88118903330B44138114235B
:107F100003FB0ABAEB88BAF80A20C3F57F43FD33A6
:107F20001344AAF80A3076E73F48404900234360EB
:107F3000AB690360FFF776FE00285AD00223AB75C9
:107F4000002300930423EA182146354800F090FFEF
:107F5000002830D00E24CFE72B69002B0CBF012363
:107F60000323AB750023009305F10C02042304F1F5
:107F70000801EAE70123AB750022EB8800929B0021
:107F80002A6904F10C01E0E7032914BF0623052345
:107F9000AB7500230093042305F10802E118D4E730
:107FA0000623AB75214B19881F4B5868FFF77EFDE0
:107FB00004460028A0D109B0BDE8F08F41F61D5459
:107FC0009AE7002E7FF400AF2B79012B32D004D337
:107FD000022B3FF43FAF0F241DE702232B71CDE9A5
:107FE00004660DF10A01EB68039303A8FFF71AFE7C
:107FF00008B90A240FE70498BDF80A108388EB80BB
:1080000003882B81FFF752FD044626E0E42B002075
:108010009C2C0020C42B0020E82B0020B02C00203A
:1080200040240020CC2B0020A82B0020BC2C0020BA
:10803000DC2B0020DFF808A203AA53463146A81D16
:10804000FFF746FE044660B9BAF804100498FFF73B
:108050002DFD04460A2C3FF4FDAE002C7FF4DBAE70
:10806000A9E708223146504607F0F4FDF2E7002E5A
:108070007FF4AAAE6D4B1A7BB2B11E731A78013A27
:10808000062AA8D801A151F822F000BF33810200CE
:1080900059810200778102007D810200D77F0200B2
:1080A00083810200998102001A78072AE6D801A18B
:1080B00051F822F0D58002007D8002007D80020010
:1080C000FB8002000F8102002F8102002F8102003D
:1080D000F78002001A89564901321A8100225A801B
:1080E0001A730A78B2FA82F252099A720A7DB2FAC7
:1080F00082F25209DA72012207E04E4958688A88F2
:108100004088033202448A8002221A70B6E7484C43
:108110005A884849142505FB024208685468506093
:108120008888108102228A800C600622EDE70722EF
:10813000EBE79A7A32B9DA7A8AB900221A705A8051
:108140005A6087E63A4900229A72CA68002AF2D138
:10815000097C0029EFD05A80FFF702FE54E7002285
:10816000DA72334A116A0029E7D192F82420002AF2
:10817000E3D00122EFE7FFF7B5FC45E7FFF752FC3C
:1081800042E706221A702A4A5B88142101FB032366
:108190005868FFF77BFC37E707221A7000225A6005
:1081A000FFF760FC30E701228DF80C201A89ADF84A
:1081B00018209A88ADF81A20DB68059310E0022297
:1081C0008DF80C201A89ADF818209A88ADF81A207D
:1081D000DA6805929B7D9A1F534253418DF81C30FB
:1081E00003A8FFF7E1FB002649461348C8F80060E2
:1081F00000F028FB0121114800F0D7FB00287FF494
:10820000C9ADD8E603228DF80C20DA88ADF8182025
:108210001A89CFE704228DF80C20DB88ADF81830DE
:10822000DEE705238DF80C30DAE700BFCC2B002009
:10823000E82B0020B02C00209C2C0020AC2C00202F
:10824000C02C00204068FFF79DBD000008B501214B
:10825000044800F094FB18B9BDE80840FFF792BD50
:1082600008BD00BFAC2C00202DE9F3419846344BEB
:108270001B7806460D46002B59D0002959D0098895
:108280004FF6FF73994256D06B88002B53D06B6822
:108290009B0752D14AB92F890DF102013846FFF7E9
:1082A00093FB30B102B0BDE8F08113885788ADF878
:1082B000023001A8FFF732FC044658B9BDF802307D
:1082C000204A142101FB032358890338C01B58811D
:1082D0000820E7E780F8008000238375BDF80230AE
:1082E00083826B6803610121174800F053FBE06053
:1082F0002B8823816B88A380B8F1030F04BF04236C
:10830000A375E78004BF3368A3610025658101A9D7
:108310000E4800F05CFA36B17560E36833600C4BD0
:10832000B5721B893381FFF791FF0020BAE7022065
:10833000B8E70520B6E70420B4E70320B2E700BFA2
:10834000C42B0020E82B0020E02B00209C2C0020D8
:10835000CC2B002008B5084B1A68042A09D01968EC
:10836000064A42F821000121184600F013FB0020C4
:1083700008BD0C20FCE700BFB82C0020B42B002067
:108380002DE9F04F89B01422002103A807F062FC08
:108390006F4A1378904603F0FF0B3BB103A8FFF739
:1083A00003FB0027384609B0BDE8F08F101D00F030
:1083B00007FB05460028F4D14FF010234FF0805200
:1083C0005B6911695269634C581C08BF02FB01F3D9
:1083D00023610022A3F540535F49E360204600F08B
:1083E00013FD009407460028DCD11C238C225B4936
:1083F0005B485C4E00F08CF9BA464FF003093C46EE
:10840000009BDA680AEB020003465AF8022068B3C0
:1084100055498A422AD1426854498A4214D00131CE
:108420008A4223D1524BBBF1000F4ED10022514959
:1084300018600193FFF794FB019B9B88022B14BFEC
:10844000082304231D432FE01421614373180022E5
:10845000725401F110020831586032443144FFF780
:108460007FFB45F002050134A4B21DE000F5805108
:108470001A68013261D104339942F9D13C4B1A6830
:108480002AB9022218609A804FF0010B0AE01423E7
:1084900063430221F218F154374B50605C80013481
:1084A0001181A4B245F001050AF5805ABAF5405F82
:1084B000A6D1B9F1010F98BF0025EDB2022D02D06F
:1084C000062D10D0CDB90B276CE714226243B118EA
:1084D0004FF0020C06F802C001341A684A60A1F895
:1084E00008C0A4B2A2E7012388F8003003A8002343
:1084F000C8F80430FFF758FA54E702A8FFF70EFB5C
:10850000C8B10123013D03700A2D09D8DFE805F049
:1085100006080608070807080F110F00002303715B
:1085200002A90F4800F053F9FFF790FE3AE7032342
:10853000F5E70223F3E7082734E714236343F2182F
:1085400009F1FF39506003221FFA89F9F2548AE7D2
:10855000C42B00204024002008030300102C00201E
:108560009C2C0020E82B0020DEC0ADDEFE011EF1B9
:10857000B02C0020B42C0020CC2B002073B50D466D
:108580000446C8B1C1B10DF10601FFF74BFBA8B11C
:108590000B4BBDF806006668142202FB0030012177
:1085A0000C3000F0F7F92E6063680C336B60012328
:1085B000A372002002B070BD0520FBE70A20F9E796
:1085C000E82B002013B50446A8B10DF10601FFF712
:1085D00029FB90B10B4ABDF80630142101FB03239F
:1085E000DA6862B1A27A52B1DA680020013ADA6040
:1085F000A07202B010BD0520FBE70A20F9E70620B3
:10860000F7E700BFE82B002002230022FFF72CBE73
:1086100018B103230022FFF727BE05207047000092
:1086200013B5104B1B780446ABB14FF6FF7398425D
:1086300013D001A8FFF772FA88B105230370012354
:108640000371C48001A9084800F0C1F8FFF7FEFDDE
:10865000002002B010BD0220FBE70420F9E708204B
:10866000F7E700BFC42B00209C2C002007B50E4B61
:108670001B78A3B101A8FFF751FA90B1062303704C
:1086800001A90A4800F0A3F8094B1A780AB101229F
:108690001A73FFF7DBFD002003B05DF804FB022036
:1086A000FAE70820F8E700BFC42B00209C2C00202C
:1086B000CC2B002007B5ADF8060002A820F8041D59
:1086C00001460DF10600FFF703FB03B05DF804FB64
:1086D00013B502AC134624F8020D0A4600202146C9
:1086E000FFF7F6FA02B010BD13B502AC134624F83A
:1086F000020D0A4620460021FFF7EAFA02B010BD3B
:1087000020B119B103680B60002070470520704745
:1087100010B561B1B2FBF3F403FB1424A4B244B965
:10872000C0E9001484608281C381204610BD0E2000
:10873000FCE70920FAE782B050E8022FC188B2EBCB
:10874000324F4FF0000317BF92B241EA014142EAB3
:10875000014104E04268B2EB324F08BF012340E818
:108760000212002AE8D18DF807309DF80730002B5F
:108770000CBF1120002002B0704737B550E8013F10
:108780009DB2C48925448489A54228BF2D1B048934
:10879000A54202BFBFF32F8F002207E0C5EA030501
:1087A00040E80154002CE9D14FF001028DF803207C
:1087B0000193019B9DF803200B6002F0FF0322B19F
:1087C0000B880068184403B030BD1846FBE70A88E0
:1087D0004B889A4209D150E8012FC2EA024240E890
:1087E0000123002BF7D1012070470020704737B5D7
:1087F00050E8023F1FFAA3F5C488A54202BFBFF3A9
:108800002F8F00220DE0C48925448489A54228BF0A
:108810002D1BC3EA054540E80254002CE8D14FF077
:1088200001028DF803200193019B9DF803200B604A
:1088300002F0FF0322B14B880068184403B030BD3A
:108840001846FBE70A884B889A4209D150E8022F64
:10885000C2EA224240E80223002BF7D101207047F0
:108860000020704701F01F024B090121914000EBED
:10887000830000F063B84B0910B501F01F0401211B
:10888000A14000EB830000F04EF8E04000F0010052
:1088900010BD01F01F0301229A404B0900EB830039
:1088A000D14300F061B84B0901F01F0150F82300DB
:1088B000C84000F0010070472DE9F0474E1E7609D0
:1088C00080460F460136002558F8254008EB850AFA
:1088D000E44394FAA4F4B4FA84F44FEA4519202C42
:1088E00006D10135AE42EFD83C462046BDE8F087C0
:1088F0004C44A742F5D921464046FFF7BCFF00286B
:10890000F3D0DAF80040E44394FAA4F4B4FA84F41F
:10891000E5E750E8002F0B4640E8003C9CF0000FD4
:10892000F7D11046704750E8002F42EA010340E8B3
:10893000003C9CF0000FF6D11046704750E8003F15
:1089400043EA010240E8002C9CF0000FF6D11046EB
:10895000704750E8002F02EA010340E8003C9CF019
:10896000000FF6D11046704750E8003F03EA0102BD
:1089700040E8002C9CF0000FF6D11046704750E8FC
:10898000002F02EB010340E8003C9CF0000FF6D101
:108990001046704750E8003F03EB010240E8002C0E
:1089A0009CF0000FF6D11046704750E8003FA3EB53
:1089B000010240E8002C9CF0000FF6D110467047F1
:1089C0000121FFF7B0BF0121FFF7B8BF0021FFF77A
:1089D000C0BF10B590B1D0E9012301689B1ADBB28A
:1089E0000A60013BDBB2FF2B026802D1002010714C
:1089F00010BD11684C1C14600B70F2E70E20F7E7F5
:108A000037B5054602A8002400F8014DFEF792FF95
:108A10002A68696813688B4210D9591E116013F8CF
:108A2000014C2A8AEB6802FB04342A68AB6811689F
:108A30005B1A1179DBB2994238BF13719DF80700B8
:108A4000FEF79CFF204603B030BD37B5054602A8AF
:108A5000002300F8013D0C46FEF76CFF2A681368FE
:108A6000591C1160E968641A298AB4FBF1F41C707E
:108A70009DF80700FEF782FF03B030BD10B5826895
:108A800004462AB143690168006998470023A3603E
:108A900010BD0EB403B5039929B102AA04AB42F884
:108AA000043D00F06BF802B05DF804EB03B07047D2
:108AB000826830B40468551C8560A154D0E9013245
:108AC0009A4202D330BCFFF7D9BF30BC70470000D8
:108AD0002DE9F84F9946DDE90A4317468246884654
:108AE0000A460126BA420FD24E4538BF4E4613F011
:108AF000010B01D164B900240125B9F1010F1AD984
:108B000009F1FF397D43F8E7B2FBF7F20136E9E7F7
:108B10009B070ED5B9F1000F0CBF30252025A642CA
:108B2000EAD2013C29465046FFF7C2FF002CF6D19D
:108B3000E1E72025F3E7B8FBF5F39F42E2D9DFF840
:108B40003890B8FBF5F3504619F8031005FB13886D
:108B5000FFF7AEFFB5FBF7F5002DF2D1BBF1000F2B
:108B600002D00CB1A64201D3BDE8F88F20215046B7
:108B7000013CFFF79DFFF4E71C0103002DE9F74FCF
:108B8000054690460E46002900F03A8116F8011B72
:108B9000002958D0252940F0D180002702E047F075
:108BA00001071646324612F8013B2D2BF7D0302B29
:108BB00004D02B2B05D147F00407F2E747F002075A
:108BC000EFE700242A2B06F101021BD1D8F8003070
:108BD000191DC8F800101B6816461C4433782E2B4C
:108BE0001CD101364FF0000A314611F8012BA2F1D9
:108BF0003000092814D80A2303FB0A23A3F1300A02
:108C00000E46F1E712F8013CA3F130010929E5D83D
:108C10000A2101FB0434303C1646D3E74FF0000A2A
:108C2000324612F8011B01F0FB0068281646F8D006
:108C3000692916D054D8582970D00ED825297DD04E
:108C40003378002BA2D12B7B002B00F0D980284653
:108C500003B0BDE8F04FFFF711BF632968D0642966
:108C6000EED1D8F80020111DC8F80010D2F80090FD
:108C700089EAE972A2EBE9724FF0010B092A61DC83
:108C8000D34538BFD3462CB1B9F1000F01DB7907CA
:108C900000D5013CBA0702D5BAF1000F04D0FB079A
:108CA00002D4002C54D10024B9F1000F58DAC9F1D4
:108CB00000092D212846FFF7FBFE07F00302022AD8
:108CC00005D1BAF1000F02D1002C4DD10024CDE91D
:108CD000004753460A2249462846FFF7F9FEAFE708
:108CE000732954D016D87029AAD1D8F800301A1D8B
:108CF000C8F80020302128461C68FFF7D9FE7821EB
:108D00002846FFF7D5FE00220823CDE90032214690
:108D10001022E1E775292FD0782991D1D8F80010D9
:108D20000A1DC8F80020CDE90047534610222CE068
:108D3000D8F800301A1DC8F8002019782846FFF727
:108D4000B7FE7DE70A230BF1010B92FBF3F295E7E7
:108D5000A345A9D220212846013CFFF7A9FEA0E7A0
:108D60007807AAD52B21A5E7A345B0D23021284604
:108D7000013CFFF79DFEA7E7D8F80010CDE90047BA
:108D80000A1DC8F8002053460A220968A4E7D8F84B
:108D900000301A1DC8F80020F907D3F8009012D54A
:108DA0004F46A7EB090B17F8011B41B9A345BFF4C8
:108DB00047AF20212846013CFFF77AFEF6E7284618
:108DC000FFF776FEEDE7B9F1000F17D0484606F041
:108DD00049FF0746BC4200D954B909F1FF3919F8D7
:108DE000011F00293FF42CAF2846FFF761FEF6E78C
:108DF00020212846013CFFF75BFEEBE74F46E9E701
:108E000003B0BDE8F08F000007B50B4688B9124BE0
:108E10001248134AC01A0E23C0080093114B0004D5
:108E2000114940F00100FDF7E9FD0E2003B05DF8A7
:108E300004FB4BB9084B09480C4AC01AC0080E2362
:108E400000930004074BEBE703601B68114603B077
:108E50005DF804EB184700BFE02403002025030061
:108E6000D90103002C010300DE01030055020300B9
:108E70002DE9F34188B93D4B3D483E4AC01AC00830
:108E80000E243D4B009400043C4940F00100FDF7E6
:108E9000B5FD204602B0BDE8F0814AB9334B3448F5
:108EA000374AC01AC0080E2400040094324BEBE786
:108EB000D0F800C0BCF1000F09D12C4B2C48314A2E
:108EC000C01AC0080824000400942B4BDCE74BB9FF
:108ED000264B27482C4AC01AC008092400040094D5
:108EE000254BD1E74768D7F80480B3FBF8F708FBB8
:108EF00017374FB11D4B1E48244AC01AC008092419
:108F0000000400941C4BBFE78F0709D0174B18488B
:108F10001F4AC01AC008102400040094164BB3E77F
:108F200012F0030F09D0114B11481A4AC01AC00899
:108F3000102400040094104BA6E7C768B9420BD375
:108F40004C1E05691C44AC4206D8DCF80C40A44613
:108F500002B0BDE8F0416047044B05480E4AC01A14
:108F6000C008102400040094034B8DE7E0240300A4
:108F700020250300D90103003E010300DE010300A8
:108F80005B0203004F0203000E02030061020300B4
:108F90008B020300A3020300C6020300F7B580B9E9
:108FA0002A4B2B482B4AC01AC0080E242A4B009487
:108FB00000042A4940F00100FDF720FD204603B0DF
:108FC000F0BDD0F800C0BCF1000F09D11F4B204804
:108FD000234AC01AC0080824000400941E4BE8E786
:108FE0004AB91A4B1A481F4AC01AC008092400047B
:108FF0000094194BDDE74768D7F800E00EF1FF3722
:109000000F4209D0114B1248174AC01AC008102449
:1090100000040094104BCCE7C768B9420CD34C1E37
:1090200005690EFB0244AC4206D8DCF81040A446A9
:1090300003B0BDE8F0406047044B05480B4AC01A36
:10904000C008102400040094034BB2E7E02403009E
:1090500020250300D901030051010300DE010300B4
:109060004F0203000E020300640103008A010300A3
:1090700029DF704728DF704770B50568AB6886B098
:1090800004460E4673B114220021684606F0E2FD44
:10909000A36805932379019633B1012B0ED0AB68F9
:1090A0006846984706B070BD01238DF800302369EB
:1090B0000293E368039363690493F0E702238DF856
:1090C0000030E3681B030293F5E708467047002071
:1090D00070470000024B187A003018BF012070471B
:1090E000642D0020034B187A0122B0FA80F05A74E4
:1090F00040097047642D002008B510461A4606F056
:109100009EFD002008BD000008B51422002104487F
:1091100006F0A0FD0348FFF70EFB002008BD00BFCE
:10912000642D0020542D002010B5094C094B4360DC
:109130002046FFF745FC40B906F0B4FB1C23207421
:109140008C2205490548FFF7E3FA002010BD00BF57
:10915000642D0020FC020300C82C0020542D0020A8
:1091600070B5244D244E2B7A2C463BB92349244814
:10917000FFF73DFB306008B9686070BD02232372C1
:1091800033681A7972B1012A24D018460321FFF7F7
:1091900073FF00232372636018491948BDE87040CB
:1091A000FFF750BBD3E90520121AB2F5805F28BF44
:1091B0004FF48052D3E903159208012A014438BFC5
:1091C00001222844FFF754FF50B11128DDD10123BB
:1091D0002372D2E7D3E903021044FFF74BFFF3E712
:1091E000237C002BC9D10146BDE87040022000F06D
:1091F00009B800BF642D00207C2D0020782D0020B0
:10920000542D002038B5831E012B45D8234C237ADA
:10921000002B41D0022B09D1032830D0204B002253
:109220001B68E2601A793AB1012A22D0637C7BBBC9
:10923000BDE83840FFF794BFD3E905128D1AB5F5A4
:10924000805F94BF521902F580529A619142EDD12C
:1092500002284FF0000308BF19462372104B18BFB5
:109260000D211868FFF708FF0E490F48FFF7EAFACB
:10927000DCE71A6901321A615B699A42E7E7E36841
:109280000133082B01D8E360D0E70023E360DFE778
:10929000BDE8384006F0F6BA38BD00BF642D0020A6
:1092A0007C2D0020782D0020542D002000F0FD039F
:1092B000012B08D1044B00225A74421E50425041E7
:1092C0001874FFF74DBF7047642D002010B5064C91
:1092D000201DFFF775FB28B9637C1BB9BDE8104062
:1092E000FFF73EBF10BD00BF642D00202DE9F34104
:1092F00080460D460F4801A916461F46FFF73DFA66
:109300000446A8B11C22002106F0A4FC2D0B012369
:10931000237101A9C4F80080A760E5606661054873
:10932000FFF755FAFFF7D2FF002002B0BDE8F08149
:109330000420FAE7542D00202DE9F74381468846A2
:10934000104801A917461E46FFF717FA0446B0B1A8
:109350001C22002106F07EFC00250A9BA36001A9C7
:109360002571C4F80090C4E9037866610548FFF7E9
:109370002EFAFFF7ABFF284603B0BDE8F0830420C8
:10938000FAE700BF542D00202DE9F047B0F8069011
:109390004479D2F800A09DF8208009FB04F4043C35
:1093A00006460AEB0300A0420F4688BFA4EB030A5F
:1093B000191DC2F800A0B1FBF9F509FB15114DB953
:1093C000A9EB0104544528BF5446BAF1000F04D15B
:1093D000BDE8F0873668013DF1E704317B1970186C
:1093E0002246B8F1000F0ED001461846AAEB040A37
:1093F00006F025FCD145254436684C464FF0000167
:1094000028BF5446E1E71946F0E7FFF7E2BAF8B59E
:1094100046790146721E0546002393422D6803D308
:109420000024A64202D8F8BD0133F6E70F682846AB
:10943000FFF70BFB01343946F3E72DE9F843CD1C68
:10944000068A0746FFF7DCFA043E35440446B5FBBE
:10945000F6F5F0B14FF48073EDB28380C680013D24
:10946000076081464FF00008A84512D23846FFF742
:10947000C7FA064648B163790133637108F1010800
:10948000C9F8000007608146EEE72046FFF7BFFFFE
:1094900034462046BDE8F88301210430FFF77ABA4C
:1094A00010B5012104460430FFF77FFA10F0FF0FDA
:1094B00004D12046BDE81040FFF7A9BF10BD1FB57D
:1094C00004AC44F8042D002200922246FFF75CFF12
:1094D00004B010BD1FB504AC44F8042D0122009265
:1094E0002246FFF751FF04B010BD33DF704741DF64
:1094F000704700000D4A08B5002313700C4A136032
:10950000BFF35F8F0B490C4800F0B6F80B4A0C48CC
:109510000121FEF7A9F9024630B94FF4004109488C
:10952000BDE80840FEF7B2B908BD00BFAC2D002071
:10953000B02D00202C030300802D0020499602004E
:10954000280303008C2D002007B502A8002300F893
:10955000013DFEF7EFF9F1EE103A23F09F03E1EE43
:10956000103ABFF35F8F0A4B4022C3F884219DF865
:109570000700FEF703FA06F095F920B1FFF7B7FFF1
:1095800003B05DF804FB20BF40BF20BFF8E700BF79
:1095900000E100E070B5264C054601212046FFF7AA
:1095A000B8F9BFF35F8F264638B9042D0AD0214B96
:1095B0001A781AB1BFF35F8F206070BD1E4A157014
:1095C00001221A701D4C1C4D6368BBB9FDF75AFA95
:1095D000FDF790F80028FBD1174B1B78023B012BBD
:1095E00014D8BFF34F8F1649164BCA6802F4E062D5
:1095F0001343CB60BFF34F8F00BFFDE71B68287894
:10960000984788B1204600F040F8DDE706F04AF9B7
:1096100008B1FFF76AFF4FF080430122C3F800252D
:10962000BFF34F8F20BFFDE7BFF35F8F3060C4E70C
:10963000B02D0020AC2D0020882D0020802D002092
:1096400000ED00E00400FA05034B1B7813B1042081
:10965000FFF7A0BF704700BFAC2D00208268002339
:10966000936082681361826853618268D360826804
:10967000536082681360704701600B6843604A68FA
:10968000934204BF002343607047436843B10268BC
:1096900091680B4443605268934204BF00234360C7
:1096A000704700000D4930B5A1F594720225914232
:1096B00001D800200EE08B1ADB1093FBF5F302EBD0
:1096C000C30452F83330834205D802D204F10802B1
:1096D000EDE7606830BD2146E9E700BF7C04030088
:1096E00008B5FFF7DFFF024B002808BF184608BD8A
:1096F0004103030038B5084C04F10803054600286F
:1097000018BF1C4623682BB11A6822605B68284684
:109710009847F7E738BD00BFBC2D002020B9054BA6
:1097200001225A70FFF7E6BF012802D1014A90706A
:10973000F8E77047B42D002020B9034B01225A707E
:10974000FFF7D8BF704700BFB42D002038B50B4CD1
:10975000237883B90A486360A3602361E36000F063
:10976000D1F8054606F09EF808B900F0D9F80123B3
:109770002370284638BD8525FBE700BFB42D0020A7
:109780001D97020037B502A80023094C00F8013DDF
:10979000FEF7D0F8E368013BE360E56815B900F037
:1097A000D3F8A5709DF80700FEF7E8F803B030BDC8
:1097B000B42D0020012813B509D003D303281BD0F2
:1097C00002B010BD0F4B0122C3F88020F8E702A8B9
:1097D00000230D4C00F8013DFEF7ACF823780BB9DF
:1097E000FFF7B4FFE3689DF807000133E36001234E
:1097F000A370FEF7C3F8E3E700F092F8FFF7C2FFAB
:10980000DEE700BF00E100E0B42D00201FB50378C3
:109810008DF8003043680193037A8DF80830C368EF
:109820000393054A054B684653F8213052F821103E
:10983000984705B05DF804FBC82D0020CC2D002012
:109840001FB503788DF800304368019383688DF865
:109850000830C3680393054A054B684653F8213026
:1098600052F82110984705B05DF804FBC82D002080
:10987000CC2D0020F0B5194B067891F81DE043F887
:109880002620174B94460A6943F82620154B03F807
:1098900006E00C4607460FCC89B06D460FC594E82C
:1098A0000F0085E80F000496BEF1000F0AD0BCF14E
:1098B000000F0D4A694608BF0022381D00F086FDE2
:1098C00009B0F0BDBCF1000F084A694608BF00228C
:1098D00007F10C0000F072FBF2E700BFCC2D002076
:1098E000C82D0020DC3500200D98020041980200B0
:1098F00000F18040002382B0036003680193019B64
:1099000002B07047054A13792BB90121106011711B
:109910005371184670478520704700BFD02D002036
:10992000084B1A68D20706D4C02283F8002301220C
:10993000C3F880211A604FF080430122C3F8182534
:10994000704700BF00E100E0044B01221A604FF0B5
:109950008042D2F81834DB03FBD470470C0000407F
:1099600010B5124B1B6873B14FF48070FFF7C0FF46
:109970004FF080430122C3F808230D4B587910B9EA
:109980005A711B6898470B4B1B6873B14FF4827078
:10999000FFF7AEFF4FF080430222C3F80823044BC9
:1099A00001201B68BDE81040184710BD00010040B1
:1099B000D02D00200401004000F1804000F5C0409F
:1099C000002382B0036003680193019B02B07047DB
:1099D000800000F1A040D0F8003723F44033C0F8F5
:1099E0000037D0F8003743EA0141C0F8001770474C
:1099F000054B4FF0FF32072843F8202084BF1B1887
:109A000083F84820704700BFD82D002010B5174CB0
:109A100094F8583043BBFF21E2180133202B82F821
:109A20003010F9D10021C8B2FFF7E2FF01310C2953
:109A3000F9D1042200210E4806F00CF90D4BC0228A
:109A400083F806234022C3F880214FF4BE701A60C9
:109A5000FFF7B2FF084B4FF00042C3F80423012385
:109A600084F85830002010BD0820FCE7D82D0020D5
:109A70002C2E002000E100E000600040034B93F832
:109A80005800003018BF0120704700BFD82D0020BB
:109A9000F0B5394D2C18944694F93040002C68DA12
:109AA0008E78C6F34006002E15BF00230823082732
:109AB0000C27BB4201D10420F0BD55F82320013210
:109AC0004FEA830441D12F1845F823C087F830307E
:109AD00016B9EA1882F848008A78560716D4D707CC
:109AE00035D5820002F1A042D2F8006726F00206C6
:109AF000C2F80067214FC60800F0070C012202FAE5
:109B00000CF217F806C042EA0C02BA558A780E78B1
:109B100012F0020224D004F1804303F5C043000296
:109B2000D3F8102522F4473222F44072C3F81025EE
:109B30003604D3F8102500F4F85006F440363043CC
:109B40001043C3F810050020B6E70133B1E74E78A3
:109B500000F5E0724FF0A047B60047F82260C9E771
:109B6000083B2B4493F8500040EA861683F8506077
:109B7000E9E70820A0E700BFD82D00202C2E002008
:109B800038B5204C251895F93020072A18DD2244D5
:109B900092F848309B09032B0DD14FF0A043D3F826
:109BA0001035C34013F0010F0CBF02210321BDE8A3
:109BB0003840FFF70DBF012B14BF03210221F6E748
:109BC000D3B2072B1CD8930003F1804303F5C043A5
:109BD000D3F8100540F00100C3F8100502F1400071
:109BE000800080B2FFF7E8FE51B195F9303054F8AB
:109BF00023302BB1012303FA02F2034BC3F80423F1
:109C000038BD00BFD82D0020006000404FF0A043B9
:109C1000D3F8103523FA00F000F00100704700007F
:109C20002DE9FF470024584A584E594D019401210F
:109C30001368A2F5C040012B80B206D1D6F80433D8
:109C40000B4202D0FFF7B8FE0C430432AA424FEA9F
:109C50004101EDD14F4B1B68012B0AD14FF4BE706F
:109C6000FFF7AAFE4FF0A04344F00044D3F81035AC
:109C7000019314F0FF0F1AD0474F002501263442FC
:109C800010D0AB0003F1804303F5C043D3F81005B7
:109C9000D3F8101557F82530C0F30420C1F3014163
:109CA00003B198470135082D4FEA4606E7D1002C4D
:109CB00066DA00224FF0FF33CDE90223DFF8D890B7
:109CC0000127002634464FF0A04809EB060393F91C
:109CD0005020531C45D0D2B222F0C005E90804A898
:109CE000084402F0070310F804CC07FA03F31CEA57
:109CF000030F36D009EB050C92099CF930C059F8D6
:109D00002CA0BAF1000F0AD1032A2AD10DF1080EB6
:109D10001EF801C04CEA030C0EF801C001E0032A52
:109D2000F4D005F5E07110F80C0C58F82110184229
:109D3000C1F3014105D0022913D1032A0BD11146E9
:109D400004E003290DD1032A05D102212846FFF79B
:109D50003FFE0134E4B2BAF1000F02D011462846AA
:109D6000D0470136042EB0D154B14FF0A043019A30
:109D7000D3F81035934203D00193029B0393A0E7DD
:109D800004B0BDE8F08700BF006100400060004003
:109D9000206100407C610040D82D0020014B1B68F1
:109DA000184700BF342E00200D4B984237B50D46A2
:109DB00010D102A8002300F8013DFDF7BBFD094BBF
:109DC0001C7914B901221D601A719DF80700FDF776
:109DD000D5FD14B9002003B030BD1120FBE700BF52
:109DE00000200040342E0020034B984201BF034B5B
:109DF00000221A601A71704700200040342E0020A3
:109E00000023435082B043580193019B02B0704736
:109E10000A4610B54FF48E71FFF7F2FF136A91688E
:109E2000C95C136A01331362C0F81C1510BD10B56C
:109E30008B690A464FF4847123B9FFF7E1FFD0F82C
:109E4000183510BDFFF7DCFF536AD168D0F818054C
:109E5000C854536A01335362F3E700001FB501236E
:109E60008DF80030044BCDE90110D3E900126846AB
:109E7000904705B05DF804FB3C2E002030B54D4AFC
:109E8000D2F8043313F4007F85B015464FD0D2F8D2
:109E90002431002B4BD04FF492711046FFF7B0FFE6
:109EA0004FF40173C2F80833434B93F8291009B9F2
:109EB000012151603F4902228DF80020D1F8802411
:109EC000C1F8802403929A690292DA680192002212
:109ED000C3E906226846D3E9001290473548D0F816
:109EE0001C315BB134490A6A4B699A420A464CD22A
:109EF00091F82830002B48D1FFF78AFF2D4AD2F87D
:109F0000443193B14FF4A2711046FFF779FF2A4B09
:109F100093F8291009B1012111609A692AB1002230
:109F20009A61586AD968FFF799FF05B030BDD5F836
:109F300004335B07D2D5D5F80831002BCED01E4CA8
:109F40001C482146FFF773FF636AA2699A422346C1
:109F5000C4D1E26952B12369E168E3600023606A19
:109F6000A261E3616362FFF779FFB7E794F8292004
:109F70000AB901226A600F4A4FF40171C2F808134E
:109F800000229A61586AD968EDE74FF48E7109484A
:109F9000FFF736FF51690029B0D000230291916884
:109FA0008DF80030019153616846D2E9001398475B
:109FB000A4E700BF002000403C2E00202DE9F8431C
:109FC0005D4B067991462C2202FB0632054692F83B
:109FD0002A200C469846002A40F0A980574900687C
:109FE000FFF7E2FE0746002840F0A3802268501CDD
:109FF0000BD0012393404FF0A0420321C2F8083553
:10A00000236803F5E07342F823106368591C1FBFEF
:10A0100003F5E0734FF0A042002142F823102B68B3
:10A02000A269C3F82425217D637D2A680B43C2F809
:10A030006C35D4E900122B68C3F81425C3F80C154D
:10A04000237D012B1FD1A3685A1C1FBF4FF0A042D4
:10A0500003F5E073002142F82310E268531C0BD093
:10A06000012393404FF0A0420321C2F80835E36872
:10A0700003F5E07342F82310D4E902122B68C3F809
:10A080000825C3F810152C23734308EB0302C2F80C
:10A090000490226948F80320B9F1000F34D04FF43E
:10A0A0008E712868227FFFF7ABFE4FF4A2712868FB
:10A0B000FFF7A6FE2B682249C3F804132968090B91
:10A0C0004BB2002BAEBF03F1604301F00F011D4BFB
:10A0D0004FEA4212D2B2AABF03F561435A5483F841
:10A0E00000232B681B0B03F01F0143F3C40323F071
:10A0F000604323F0030303F1604303F5614301224E
:10A100008A40C3F880211A602B680422C3F8002516
:10A110002C2303FB06830022C3E9062283F82920AF
:10A120005A61012283F82A203846BDE8F8830827BF
:10A13000FAE71127F8E700BF3C2E00207D9E0200C1
:10A140008000020014ED00E0F8B5036804792F4D9B
:10A150000022C3F800252C2303FB04535B6883B162
:10A1600003682B4AC3F8082303681B0B5AB201216A
:10A17000520903F01F0301FA03F32032254941F885
:10A18000223003684FF0FF3CD3F80C75D3F8146508
:10A19000D3F80825D3F81015C3F814C5C3F80CC5B7
:10A1A00003686745C3F808C518BF07F5E077C3F82B
:10A1B00010C51EBF4FF0A0434FF0020C43F827C05C
:10A1C000771C1FBF4FF0A04306F5E076022743F847
:10A1D00026704E1C1FBF01F5E0714FF0A043022610
:10A1E00043F82160531C1FBF4FF0A04302F5E072FB
:10A1F000022143F822100068FFF7F6FD2C2303FB31
:10A200000454002384F82A306360F8BD3C2E0020FB
:10A210008402020000E100E02DE9F843224B0779B7
:10A220004FF02C0909FB0734064665699846002D56
:10A2300035D16261A160256284F828504FF48E7197
:10A240000068FFF7DDFD336801229A60214630681F
:10A25000FFF7DEFD6368A1461BBB3568226A6369B0
:10A260009A4211D33368D3F81C21002AFBD0012273
:10A27000DA6000202C2303FB078700237B61BDE805
:10A28000F88394F8283043B9D5F81C31002BF8D066
:10A2900049462846FFF7BCFDE0E70F20EAE711201A
:10A2A000EDE72846EBE700BF3C2E0020002343509B
:10A2B00082B043580193019B02B070471FB5012340
:10A2C0008DF80030054B8DF8080001916846D3E900
:10A2D0000012904705B05DF804FB00BF682E002017
:10A2E0007FB5384AD2F82461002E49D010464FF489
:10A2F0009271FFF7DBFF02238DF80030D2F8803433
:10A30000C2F880340393D2F83C358DF808302E4BD8
:10A31000DA6801920022C3E906226846D3E90012F6
:10A320009047284AD2F8443173B14FF4A2711046D5
:10A33000FFF7BCFF244B996931B100219961D2F834
:10A340003C05D968FFF7BAFF1E4AD2F82031ABB1FD
:10A350004FF490711046FFF7A9FF1B4B596969B183
:10A36000D2F84C158DF80810002299688DF800205D
:10A3700001915A616846D3E90012904704B070BD5C
:10A38000D2F81031002BCCD04FF488711046FFF773
:10A390008DFF0D4BD2F83C0599698842C1D1DC692B
:10A3A000D96864B1D2F8005225F02005C2F80052F5
:10A3B0001A699C61DA60DE61FFF780FFB1E79C619A
:10A3C000FAE700BF00200040682E00202DE9F84386
:10A3D000614B06799146242202FB0632054692F82B
:10A3E00020200C469846002A40F0B1805B49006866
:10A3F000FFF7DAFC0746002840F0AB802268501CCB
:10A400000BD0012393404FF0A0420321C2F808353E
:10A41000236803F5E07342F823106368591C1FBFDB
:10A4200003F5E0734FF0A042002142F823102B689F
:10A43000A269C3F82425217D637D2A680B43C2F8F5
:10A440006C35D4E900212B68C3F80C25C3F814152A
:10A45000237D012B1FD1A3685A1C1FBF4FF0A042C0
:10A4600003F5E073002142F82310E268531C0BD07F
:10A47000012393404FF0A0420321C2F80835E3685E
:10A4800003F5E07342F82310D4E902122B68C3F8F5
:10A490000825C3F810152423734308EB0302C2F800
:10A4A0000490226948F80320B9F1000F3ED04FF420
:10A4B00088712868227FFFF7F9FE4FF490712868B1
:10A4C000FFF7F4FE4FF492712868FFF7EFFE4FF4A8
:10A4D000A2712868FFF7EAFE2B682149C3F804132C
:10A4E0002968090B4BB2002BAEBF03F1604301F0AA
:10A4F0000F011C4B4FEA4212D2B2AABF03F56143CF
:10A500005A5483F800232B681B0B03F01F0143F3FD
:10A51000C40323F0604323F0030303F1604303F516
:10A52000614301228A40C3F880211A602B68082207
:10A53000C3F80025242303FB06830022C3E9062277
:10A540005A61012283F820203846BDE8F8830827A5
:10A55000FAE71127F8E700BF682E0020E1A2020009
:10A560001003020014ED00E0F8B5036804792F4DE4
:10A570000022C3F80025242303FB04535B6883B146
:10A5800003682B4AC3F8082303681B0B5AB2012146
:10A59000520903F01F0301FA03F32032254941F861
:10A5A000223003684FF0FF3CD3F80C75D3F81465E4
:10A5B000D3F80825D3F81015C3F80CC5C3F814C593
:10A5C00003686745C3F808C518BF07F5E077C3F807
:10A5D00010C51EBF4FF0A0434FF0020C43F827C038
:10A5E000771C1FBF4FF0A04306F5E076022743F823
:10A5F00026704E1C1FBF01F5E0714FF0A0430226EC
:10A6000043F82160531C1FBF4FF0A04302F5E072D6
:10A61000022143F822100068FFF7E6FB242303FB26
:10A620000454002384F820306360F8BD682E0020B5
:10A630001003020000E100E001F06043B3F1005FAD
:10A640002DE9F041064634D11D4B0779242505FB41
:10A65000073598466C6974BB6A61A96000684FF45D
:10A660009071FFF723FE4FF4AC713068FFF71EFEC8
:10A6700033686A69A968C3F84415C3F84825336884
:10A6800001229A606B68C3B93268D2F82011D2F8FF
:10A69000583149B9002BF8D00F20242303FB07873A
:10A6A00000237B61BDE8F081002B14BF0F20002048
:10A6B000F3E71020F6E71120F4E72046F2E700BFA9
:10A6C000682E00200220FCF74DBB00002DE9F0476A
:10A6D00081460D46FCF766FB0328044604D8012D8D
:10A6E00004D024D3022D2FD0BDE8F087194D4700A8
:10A6F0003A18A918AE5C4A7852B1DFF8688016485B
:10A7000042464FF40041FDF7C1F808B988F80090BF
:10A710003B192B449A78114B1A55002EE4D0104B5C
:10A720001B68002BE0D03046BDE8F04718470A48C8
:10A73000FDF7F0F8074B04EB440213449E78074BF7
:10A740001B5DB342D0D1E8E7024B00EB40041C4450
:10A750006678E2E7F02E0020B02E0020092F0020BE
:10A76000042F00208C2E002002210078FFF7AEBFBE
:10A7700008B5094B1B7853B10020FCF7C9FA01203A
:10A78000FCF7C6FA0320BDE80840FCF7C1BABDE8F3
:10A790000840FCF7C9BA00BF8D2E0020F8B57B4CED
:10A7A000237805461BB100232370FFF7E1FF172D27
:10A7B00000F28880DFE805F00C17174354657680B7
:10A7C000888D888D959A9A9A9A9AC4C9D1D9E4E4C9
:10A7D000FFF7CEFF6E48FDF79DF86E4B0022044652
:10A7E0001A702046F8BD0020FCF778FAF8B1002076
:10A7F000FCF78EFA022D0CBF4FF4E1614FF47A6141
:10A80000644B1D704FF400404FF4FA740025E0FBD8
:10A8100001454FF47A7200232046294605F03AFAA2
:10A82000002201465A48BDE8F840FDF72FB8FCF772
:10A8300063FA022D0CBFC8214FF4C871E0E7002075
:10A84000FCF74CFA40B10020FCF762FA4FF4487173
:10A85000504B03221A70D5E7FCF74EFAC821F7E7F0
:10A860000020FCF73BFA38B10020FCF751FA4FF416
:10A870007A61484B0422EDE7FCF73EFA4FF4C871C9
:10A88000F7E70020FCF72AFA48B10020FCF740FA6D
:10A89000404B05221A7041F69A110022C2E7FCF7DC
:10A8A0002BFAF5E70020FCF75DFA3A4B06221A7006
:10A8B000002240F6CD41B5E70020FCF71DFA354BEC
:10A8C00007221A7000248CE701202070FCF74AFA56
:10A8D000EEE701202070FCF745FA00224FF480419A
:10A8E000A0E7FCF730FA2B4B0C22EAE72A482B4E64
:10A8F000FDF710F8D5F1110504461CD0D8B9012D8B
:10A9000013D0C8235D434FF400474FF4FA70002181
:10A910004FF47A720023C7FB050105F0BBF922460C
:10A9200001461D48FCF7B2FF04460220FCF7E4F99B
:10A930000123337055E70220FCF7EAF90023F8E71A
:10A94000FFF716FF134B1222BBE7FFF711FF0020A2
:10A95000FCF7D2F90F4B1322B3E7FFF709FF0120F1
:10A96000FCF7CAF90B4B1422ABE7FFF701FF0020FD
:10A97000FCF7C2F90120FCF7BFF9064B1522A0E74E
:10A98000FCF7E1F9034B1D709CE700BF002F00208E
:10A99000D02E0020082F0020902E00208D2E002089
:10A9A000044B1B68DB0703D5034B1878FFF7F6BE93
:10A9B000704700BFFC2E0020082F0020032801D87C
:10A9C000FCF7E2B900207047044B1B6813F0010349
:10A9D00001D0FFF7E3BE1846704700BFFC2E0020F1
:10A9E00038B51C4B18601C4B10F00204054619606A
:10A9F0001AD01A4B1A480E221A700F22DA7010223F
:10AA00009A7111225A72042140F26662FCF740FCEE
:10AA1000044648B9FCF790FC044628B90146114A9F
:10AA20001148FCF721FF0446EB0711D50120FCF784
:10AA3000D1F96CB921460D4A0D48FCF715FF0446C3
:10AA400030B90C4A0C480121BDE83840FCF70CBF76
:10AA5000204638BDFC2E0020042F0020F02E0020C0
:10AA60005808030069A702007C080300A1A902009E
:10AA700080080300C5A6020078080300032812D846
:10AA8000012A0BD1012908D100F10E02D2B200EB4C
:10AA900040000C4B1A540020704700220129F6D0C8
:10AAA00009D3022901D007207047064B00EB400074
:10AAB00018444270EFE7034B00EB400018448270EB
:10AAC000E9E700BFF02E0020032808B512D8FCF7F4
:10AAD0007BF9800000F1A040D0F8003723F4403328
:10AAE000C0F80037D0F8003743F44033C0F80037DF
:10AAF000002008BD0620FCE708B501220221002045
:10AB0000FFF7BCFF08B1072810D10722022101205E
:10AB1000FFF7B4FF08B1072808D100210A22084630
:10AB2000FFF7ACFF10B1072808BF002008BD0000E8
:10AB300010B50388102B02D0112B1ED010BD1A4C5B
:10AB40002168B1B901220846FFF798FF08B107282C
:10AB500024D1072202210120FFF790FF08B1072826
:10AB60001CD1042202210020FFF788FF08B107282A
:10AB700014D1236801332360E0E70B4A1368013BDB
:10AB80001360002BDAD1FFF7B7FF0028D6D0074BB0
:10AB90001B68002BD2D0BDE810401847034B1B6840
:10ABA000002BE6D09847E4E7142F0020102F002058
:10ABB00008B50020FFF788FF08B1062806D101205C
:10ABC000FFF782FF10B1062808BF002008BD000073
:10ABD0000D4B10B518600C4629B10120FFF7EEFEB1
:10ABE00040B102232370094B1B6853B9BDE81040E4
:10ABF000FFF782BFFFF7E2FE08B10B23F2E72070F8
:10AC0000F1E7002010BD00BF102F0020142F0020FE
:10AC100076DF70477ADF70477CDF70478FDF7047E1
:10AC2000FCF7A0BB08B50020FFF7CEFE08B1FCF78B
:10AC300099FBFFF7BDFF08B1FCF794FB04F0F2FDB0
:10AC400018B1BDE80840FCF78DBB08BD13B50388FB
:10AC5000212B04461ED003D8102B0AD002B010BD01
:10AC60003B2B01D0562BF9D11321A088FFF7D0FF41
:10AC70000BE00720FFF7A8FE08B1FCF773FB094BB8
:10AC8000A1880948198002F0CBF90028E6D0FCF72A
:10AC900069FBE3E702A9002321F8043D8088FFF760
:10ACA000BDFFF2E74C2200208431002010B504469D
:10ACB00003F0B8FC2046BDE8104003F0D9BA00000C
:10ACC00010B51F4B1F4A9B1ADB088CB01B040328CE
:10ACD00034D8DFE800F002272D3143F003041A498D
:10ACE0002046FBF773FE2C22002101A804F0B2FFDE
:10ACF00044F250624FF496710123CDE905121348D6
:10AD00008DF8083001A98DF8043000F0B0FE002164
:10AD10000F4801F019F90F4902462046FBF75AFE89
:10AD20000CB010BD0C4943F00300FBF74FFEF7E7F2
:10AD30000A4943F00100F8E70949FAE70949F8E749
:10AD400008250300E0240300E0080300182F00207A
:10AD500069AD02000E09030025090300480903003C
:10AD600081090300AE09030010B513210246FFF765
:10AD70004FFF034658B10648064C0749241AE40819
:10AD8000240444F00200BDE81040FBF72DBE10BDC6
:10AD9000E024030008250300D5090300022810B5AC
:10ADA0000ED1084B084C0949E41AE408240444F085
:10ADB00003042046FBF70AFE05492046FBF706FE82
:10ADC000012010BDE02403000825030084080300CF
:10ADD000B1080300032807D14FF08043A922C3F82C
:10ADE00020250020FEF7D6BB7047000008B5037889
:10ADF0004BB9054B3B211888FFF70AFF18B1BDE896
:10AE00000840FCF7AFBA08BD4C220020072808B55F
:10AE100013D00A280DD0042819D10D4B13211888FE
:10AE2000FFF7F6FE30F0080311D0BDE80840FCF74C
:10AE300099BABDE80840FFF7F5BE054B1A884FF6F2
:10AE4000FF739A4203D1034800F0F3FDEAE708BD1F
:10AE50004C220020182F002008B548B103280BD140
:10AE60000220FFF7B1FD38B1BDE80840FCF77ABA1F
:10AE7000BDE80840FFF7D6BE08BDFCF773BA000076
:10AE800070B54FF40041ACB00020FBF7D9FB08B11E
:10AE9000FCF768FAFBF70CFB04F07EFB08B1FCF74B
:10AEA00061FAFCF7B1FC08B1FCF75CFAFEF722FB93
:10AEB00008B1FCF757FA7E490320FFF791FD08B16E
:10AEC000FCF750FA01A90020FFF782FE08B1FCF759
:10AED00049FA9DF8045004F069FC08B1FCF742FA05
:10AEE000002301A90120019304F026FD08B1FCF71D
:10AEF00039FA01A804F0D2FD08B1FCF733FA02F0E8
:10AF00005FFE08B1FCF72EFA0522002101A804F02B
:10AF1000A1FE9DF8043043F00103032203F0F10386
:10AF200062F306136FF3C7138DF8043007238DF80F
:10AF3000053010238DF806309DF8073013438DF847
:10AF400007309DF8083001A813438DF8083002F04F
:10AF5000D1FE08B1FCF706FA564802F0B3FE08B17C
:10AF6000FCF700FA2CAC112304F8B03D524804F071
:10AF700079FE514982B22046FFF74EFE08B1FCF738
:10AF8000F1F90021082201A804F064FE4B494FF0BA
:10AF9000C87301A8CDE90113FFF73CFE08B1FCF727
:10AFA000E1F90021464801F029FF08B1FCF7DAF980
:10AFB000AC22002101A804F04DFE02238DF80430DC
:10AFC000062301268DF807302C223E4B06930021E4
:10AFD0001FA88DF80660ADF8146004F03BFE44F243
:10AFE00050634FF49672CDE9232301A9364B3748BD
:10AFF0008DF880602A9300F059FB08B1FCF7B2F994
:10B000000121324800F04FFB002301932146304BD1
:10B010003048009301F0F2FF08B1FCF7A3F92E4B82
:10B02000019301A804F03AFA08B1FCF79BF91C223D
:10B03000002101A804F00EFE00234FF42032CDE9D8
:10B040000132ADF812304FF470228DF81430234BDA
:10B05000039206930322224B8DF8102001A8079338
:10B0600000F014FE08B1FCF77DF91E4B1E4C1F4981
:10B07000E41AE408240444F003042046FBF7A6FC89
:10B08000022D0FD11A492046FBF7A0FC02F08AFEE0
:10B0900008B1FCF767F9FBF72DFB0028FBD1FEF7A1
:10B0A00053FAF8E70321094800F07FFBF0E700BFFF
:10B0B0000DAE0200ADAC0200160A03005000A00065
:10B0C000703100204822002059AE0200182F0020C5
:10B0D00021AC020084310020C1AC0200EDAD0200C1
:10B0E0007BAE0200E024030008250300280A0300C9
:10B0F0004C0A030013DF704738B54FF01025114C90
:10B10000114A6B69A41AE40801334FEA044411D0D0
:10B110006A690E4944F00300FBF75CFC6869FFF7BD
:10B12000E9FF054620B10A4944F00100FBF74EFC57
:10B13000284638BD074944F00100FBF747FC0425C9
:10B14000F6E700BF08250300E0240300590A0300C6
:10B15000840A0300B70A030038B50B4B0B4C0C4AAA
:10B160000C49E41AE408240444F00300FBF732FC21
:10B170000748FFF7BFFF054620B1074944F001002B
:10B18000FBF724FC284638BDE02403000825030013
:10B1900000600200CF0A0300840A03006DDF7047DD
:10B1A00079DF70477DDF704764DF70472DE9F74F27
:10B1B0000C9CBDF834B02788002580468A4691460D
:10B1C0002E46B8F80020B2420BDC35B12288013A95
:10B1D000D21B92B2FF2A39D8DA55002003B0BDE85D
:10B1E000F08FD8F8042052F82600019000220DF1CB
:10B1F000030101A8FFF7D8FF0028EFD19DF8032035
:10B200004A4521D12288002D14BF0020022002EBE4
:10B2100009010144594519DC3DB9013292B222803D
:10B2200003F802A022880132228022880DF1030156
:10B230001A4401A8FFF7B8FF0028CFD121889DF854
:10B2400003200A44228001250136BAE70C20C5E715
:10B250002DE9F341089CBDF824501746CDE900457F
:10B2600002220646FFF7A2FF48B9102239463046AF
:10B27000CDE9084502B0BDE8F041FFF797BF02B045
:10B28000BDE8F0812DE9F04F00231688138090F877
:10B290002D3085B007460D46144653B3082E01D80D
:10B2A0000C2026E102A8FFF779FF002840F0218159
:10B2B00013880822CA54238801339BB21B2223809F
:10B2C000CA542088013080B2208006220DF1090185
:10B2D000284404F0B4FC23889DF8082006339BB270
:10B2E00012F0FE0218BF01222380EA5423880133A2
:10B2F0002380BB78FBB123880433B342D0D802A8A3
:10B30000FFF74EFF002840F0F48023880322EA5420
:10B31000238801339BB219222380EA542388BDF885
:10B32000082001339BB2E9182380EA54120A4A70BC
:10B33000238802332380FA789AB12388D91CB1423A
:10B34000AED80221E954238801339BB20121238026
:10B35000E95423880B449BB22380EA5423880B448E
:10B3600023807A68AAB12388D91CB14298D80221D7
:10B3700092F90020E954238801339BB20A212380EB
:10B38000E954238801339BB22380EA542388013394
:10B3900023803B89002B40F0A0803B8A5BB1CDE944
:10B3A00000462B460722032107F11000FFF750FF4C
:10B3B000002840F09E803B8B5BB1CDE900462B46D8
:10B3C0001522142107F11800FFF742FF002840F072
:10B3D00090803A6A002A40F08F80D7F82480B8F134
:10B3E000000F30D0B8F804302188981C8A1C024421
:10B3F000B2423FF655AFFE283FF652AF03336B54CF
:10B40000238801339BB2FF222380EA54238801332F
:10B410009BB22380B8F80020EA54E918120A4A7057
:10B420002088023080B22080B8F804205AB1D8F8C1
:10B43000081000296AD0284404F001FC2388B8F8D9
:10B4400004201344238097F82C30002B40F099807F
:10B45000387800284DD03B88012B57D021888A1C92
:10B46000B2423FF61DAF012805D17B7802330B4471
:10B470009E42FFF415AF023E761A04A9B6B221F837
:10B48000086DA818FFF78EFE98BB3978BDF8082024
:10B49000022900F0BB807B78934202D3B24240F293
:10B4A000B380012940F0B4809BB29E42C0F0B080CE
:10B4B000ADF808300821BDF80830FE2B3FF6F0AE9D
:10B4C00022880133AB542288013292B22280A954DF
:10B4D00022881344238000200BE0CDE900462B4650
:10B4E0000622022107F10800FFF7B2FE00283FF410
:10B4F00054AF05B0BDE8F08FB4F800C00CF10603FE
:10B50000B3423FF6CDAE1188052901D80720F0E7F8
:10B510006FF4486E01EB0E039BB24FF27D3E734514
:10B52000F4D95388052BF1D96FF44860181880B20C
:10B530007045EBD94FF6FF70814203D0834201D0B2
:10B540009942E3D8052305F80C30238801339BB2D8
:10B5500012212380E954238801339BB22380118870
:10B56000E954E818090A4170238802339BB223800A
:10B570005288EA54E918120A4A7023880233238059
:10B580002BE7BB6A002BC1D04FF000094FF00C0A2B
:10B590004FF0160B97F82C305FFA89F293427FF642
:10B5A00057AFB96A0AFB02F201EB0208B8F804309F
:10B5B000981CFE283FF674AE208803332B54238852
:10B5C00001339BB2238005F803B0238801339BB27B
:10B5D00023808A5AEA54E918120A4A7020880230F5
:10B5E00080B22080B8F804205AB1D8F80810002999
:10B5F0008CD0284404F023FB2388B8F8042013449B
:10B60000238009F10109C5E7092154E7B242FBD9BA
:10B61000ADF808604EE770B5C0B14AB11688002495
:10B62000B44203D305196D789D4208D0A14201D8D8
:10B6300000200BE0055D01352C44A4B2F0E7A142E7
:10B64000F6D9A31C1380005D013880B270BD37B5F8
:10B6500002AC002324F8023D134622460546FFF7BC
:10B66000DAFF10B1BDF80600284403B030BD72DF28
:10B67000704773DF704774DF704738B501220446A6
:10B680000D46B0F83812D0F83402FFF7E0FF00B1F1
:10B69000057004F13C0204F50D7104F15400BDE89D
:10B6A0003840FFF7E4BF80F830107047F8B5044623
:10B6B0000F46002975D0002873D091F87A301BB15D
:10B6C00091F89830002B6ED1D7F8A030042B6AD0B7
:10B6D000D7F89C30042B66D04FF0000C84F802C0E1
:10B6E00007F178060FCE251D0FC50FCE0FC596E8C2
:10B6F000070085E8070084F830C0D7F8A4306363FA
:10B70000D7F8A830A3634FF6FF7504F50D73C4F89E
:10B710004432A4F848520722614604F24A2004F059
:10B7200099FA23780BB984F8545094F8243004F132
:10B730005501C4F8341283B3EE23A4F8383204F56B
:10B740000E723846FFF79EFD30BB94F8243004F2A9
:10B75000431107F13C00C4F83C1203B3EE23A4F8F4
:10B76000403204F51072FFF78DFDA8B9A269A4F864
:10B77000482001236269206484F850006264014615
:10B7800084F8513084F83C3004F13C0204F1540058
:10B79000FFF76DFF00B92370F8BD1F23CDE71F230E
:10B7A000DDE70E20F8E70720F6E7F8B5077804464E
:10B7B0000D46002F00F0058100F24A26A1700722F5
:10B7C0000021304604F046FAE38813B1A378012B38
:10B7D00004D0E3794BB1A378022B06D1636BA3B1FC
:10B7E000012284F8512208209847334604F5147149
:10B7F00013F8012F12B99942FAD117466B1E032B89
:10B8000053D8DFE803F0050B0F1284F85132ECE750
:10B81000A3791BB194F8243003B95FB9E3790BB174
:10B82000002F44D1237A002B43D1637A002B0CBF25
:10B8300000250425636BA570002B3CD0033D012D32
:10B8400039D86279002A36D094F85222002A32D1AF
:10B8500084F85422012284F853220720984704F1E7
:10B860003C0518220021284604F0F4F9E36A94F814
:10B8700024200121581E884288BF0B4684F83C10C2
:10B8800084F8513032B1884296BFA36A84F85210CE
:10B8900084F85230A178002384F8503004291BD852
:10B8A000DFE801F0770D223559000025C2E70225B7
:10B8B000C0E70325BEE7002384F85332CFE7C4F87E
:10B8C0004432C4E910630223012284F83C3080230F
:10B8D00084F83120A4F84830A378002B5CD1636B46
:10B8E000002B6AD1002067E0022384F8313062B176
:10B8F000072384F83C302369A4F848300023C4F8B7
:10B900004432E36826646364E6E70323F1E763698E
:10B910006364A369A4F8483012B1062384F83C306C
:10B920006379B3B194F852329BB994F8543283B12D
:10B93000022384F8503004212046FFF79EFE0028A1
:10B94000CAD1052384F8313004F50D73C4F84432AC
:10B95000C2E70323F6E7E3696364236AA4F8483087
:10B9600012B1062384F83C30637983B194F85232E3
:10B970006BB994F8543253B1022384F85030042147
:10B980002046FFF77AFE0028A6D10623DAE7042333
:10B99000D8E784F831309FE72A46D4F8441204F1FE
:10B9A0005400FFF764FE38B994F8301094F854004E
:10B9B000FFF75FFE002892D0F8BD94F83100984759
:10B9C00090E70820F8E710B50388112B0C460AD041
:10B9D000262B1FD0102B05D1C37B012B02D18388CE
:10B9E000A1F8483210BD002381F852328288B1F8A4
:10B9F00048329A42F6D10B79002BF3D1012120462F
:10BA0000FFF7D3FE0028EDD0A36B002BEAD0BDE8F2
:10BA100010401847037A013B012BE3D889780523AE
:10BA2000013191FBF3F303EB8303C91AC9B2E6E7D3
:10BA3000704738B5044690F85400FFF71CFE012308
:10BA400084F85232002384F8543284F850300621AE
:10BA50002046FFF712FE054638B9A1782046FFF7C9
:10BA6000A4FE10B1A36B03B19847284638BD30B58A
:10BA70000D46041D0FCD0FC40FCD0FC495E8070070
:10BA800084E8070030BD75DF704776DF70477ADFE6
:10BA900070477BDF70470000034B1A8882420CBF5F
:10BAA00018460020704700BFAC310020024B9B6954
:10BAB00003B11847704700BF9031002037B585B2F9
:10BAC0002846FFF7E9FF034670B1164C017A227B46
:10BAD00091420BD200F10A012846FFF7D4FFE8B1EA
